{
  "transactions": [
    {
      "hash": "0x6468372692ad49f5ddd1a96a2a7278f4885d2146b880ea937baee3c39b034253",
      "transactionType": "CALL",
      "contractName": null,
      "contractAddress": "0xbe98d00e9f9676f7195985d278b40f5a4610da80",
      "function": "configurePool((address,address,uint24,int24,address),(bytes32,bytes32,uint24,uint24,uint24,uint256,uint256,uint256))",
      "arguments": [
        "(0xfFf9976782d46CC05630D1f6eBAb18b2324d6B14, 0x1c7D4B196Cb0C7B01d743Fbc6116a902379C7238, 8388608, 10, 0xbe98d00E9f9676F7195985d278b40F5A4610Da80)",
        "(0xff61491a931112ddf1bd8147cd1b641375f79f5825126d665480874634fd0ace, 0xeaa020c61cc479712813461ce153894a96a6c00b21ed0cfc2798d1f9a9e9c94a, 3000, 50000, 500, 0, 0, 0)"
      ],
      "transaction": {
        "from": "0x4b992f2fbf714c0fcbb23bac5130ace48cad00cd",
        "to": "0xbe98d00e9f9676f7195985d278b40f5a4610da80",
        "gas": "0x37a52",
        "value": "0x0",
        "input": "0xf772b36d000000000000000000000000fff9976782d46cc05630d1f6ebab18b2324d6b140000000000000000000000001c7d4b196cb0c7b01d743fbc6116a902379c72380000000000000000000000000000000000000000000000000000000000800000000000000000000000000000000000000000000000000000000000000000000a000000000000000000000000be98d00e9f9676f7195985d278b40f5a4610da80ff61491a931112ddf1bd8147cd1b641375f79f5825126d665480874634fd0aceeaa020c61cc479712813461ce153894a96a6c00b21ed0cfc2798d1f9a9e9c94a0000000000000000000000000000000000000000000000000000000000000bb8000000000000000000000000000000000000000000000000000000000000c35000000000000000000000000000000000000000000000000000000000000001f4000000000000000000000000000000000000000000000000000000000000000000000000000000000000000000000000000000000000000000000000000000000000000000000000000000000000000000000000000000000000000000000000",
        "nonce": "0x5",
        "chainId": "0xaa36a7"
      },
      "additionalContracts": [],
      "isFixedGasLimit": false
    },
    {
      "hash": "0x527862c380730135ef7c942d4bf2a265e499ed3fd102b8034a3eaf55be426a8f",
      "transactionType": "CALL",
      "contractName": null,
      "contractAddress": "0xbe98d00e9f9676f7195985d278b40f5a4610da80",
      "function": "setTargetRange((address,address,uint24,int24,address),int24,int24)",
      "arguments": [
        "(0xfFf9976782d46CC05630D1f6eBAb18b2324d6B14, 0x1c7D4B196Cb0C7B01d743Fbc6116a902379C7238, 8388608, 10, 0xbe98d00E9f9676F7195985d278b40F5A4610Da80)",
        "-100",
        "100"
      ],
      "transaction": {
        "from": "0x4b992f2fbf714c0fcbb23bac5130ace48cad00cd",
        "to": "0xbe98d00e9f9676f7195985d278b40f5a4610da80",
        "gas": "0x12b44",
        "value": "0x0",
        "input": "0x9be1caba000000000000000000000000fff9976782d46cc05630d1f6ebab18b2324d6b140000000000000000000000001c7d4b196cb0c7b01d743fbc6116a902379c72380000000000000000000000000000000000000000000000000000000000800000000000000000000000000000000000000000000000000000000000000000000a000000000000000000000000be98d00e9f9676f7195985d278b40f5a4610da80ffffffffffffffffffffffffffffffffffffffffffffffffffffffffffffff9c0000000000000000000000000000000000000000000000000000000000000064",
        "nonce": "0x6",
        "chainId": "0xaa36a7"
      },
      "additionalContracts": [],
      "isFixedGasLimit": false
    },
    {
      "hash": "0x3d5ea4813754aca15de281fd7a97c9717eb3aa5ec1a81b72966e22d946f8b0aa",
      "transactionType": "CALL",
      "contractName": null,
      "contractAddress": "0xbe98d00e9f9676f7195985d278b40f5a4610da80",
      "function": "updateLiquidityAllowlist((address,address,uint24,int24,address),address,bool)",
      "arguments": [
        "(0xfFf9976782d46CC05630D1f6eBAb18b2324d6B14, 0x1c7D4B196Cb0C7B01d743Fbc6116a902379C7238, 8388608, 10, 0xbe98d00E9f9676F7195985d278b40F5A4610Da80)",
        "0x5E2DD3d96E81925e142d2F0dE2916aA952bb598f",
        "true"
      ],
      "transaction": {
        "from": "0x4b992f2fbf714c0fcbb23bac5130ace48cad00cd",
        "to": "0xbe98d00e9f9676f7195985d278b40f5a4610da80",
        "gas": "0x10f63",
        "value": "0x0",
        "input": "0x48a429f9000000000000000000000000fff9976782d46cc05630d1f6ebab18b2324d6b140000000000000000000000001c7d4b196cb0c7b01d743fbc6116a902379c72380000000000000000000000000000000000000000000000000000000000800000000000000000000000000000000000000000000000000000000000000000000a000000000000000000000000be98d00e9f9676f7195985d278b40f5a4610da800000000000000000000000005e2dd3d96e81925e142d2f0de2916aa952bb598f0000000000000000000000000000000000000000000000000000000000000001",
        "nonce": "0x7",
        "chainId": "0xaa36a7"
      },
      "additionalContracts": [],
      "isFixedGasLimit": false
    },
    {
      "hash": "0xc3feeb05b5c708303856f7addc99c1e58ec278971656ffd06fc70a91c7e79335",
      "transactionType": "CALL",
      "contractName": null,
      "contractAddress": "0xbe98d00e9f9676f7195985d278b40f5a4610da80",
      "function": "updateLiquidityAllowlist((address,address,uint24,int24,address),address,bool)",
      "arguments": [
        "(0xfFf9976782d46CC05630D1f6eBAb18b2324d6B14, 0x1c7D4B196Cb0C7B01d743Fbc6116a902379C7238, 8388608, 10, 0xbe98d00E9f9676F7195985d278b40F5A4610Da80)",
        "0x4b992F2Fbf714C0fCBb23baC5130Ace48CaD00cd",
        "true"
      ],
      "transaction": {
        "from": "0x4b992f2fbf714c0fcbb23bac5130ace48cad00cd",
        "to": "0xbe98d00e9f9676f7195985d278b40f5a4610da80",
        "gas": "0x10f54",
        "value": "0x0",
        "input": "0x48a429f9000000000000000000000000fff9976782d46cc05630d1f6ebab18b2324d6b140000000000000000000000001c7d4b196cb0c7b01d743fbc6116a902379c72380000000000000000000000000000000000000000000000000000000000800000000000000000000000000000000000000000000000000000000000000000000a000000000000000000000000be98d00e9f9676f7195985d278b40f5a4610da800000000000000000000000004b992f2fbf714c0fcbb23bac5130ace48cad00cd0000000000000000000000000000000000000000000000000000000000000001",
        "nonce": "0x8",
        "chainId": "0xaa36a7"
      },
      "additionalContracts": [],
      "isFixedGasLimit": false
    },
    {
      "hash": "0xec7769b9f0e88672a3337c5a46fb1ae4f7eb4c94fad6e617ac5342aad7a19888",
      "transactionType": "CALL",
      "contractName": null,
      "contractAddress": "0xbe98d00e9f9676f7195985d278b40f5a4610da80",
      "function": "updateLiquidityAllowlist((address,address,uint24,int24,address),address,bool)",
      "arguments": [
        "(0xfFf9976782d46CC05630D1f6eBAb18b2324d6B14, 0x1c7D4B196Cb0C7B01d743Fbc6116a902379C7238, 8388608, 10, 0xbe98d00E9f9676F7195985d278b40F5A4610Da80)",
        "0x9C93926BcEf5Af829FA2e9B096fabb87508350ae",
        "true"
      ],
      "transaction": {
        "from": "0x4b992f2fbf714c0fcbb23bac5130ace48cad00cd",
        "to": "0xbe98d00e9f9676f7195985d278b40f5a4610da80",
        "gas": "0x10f63",
        "value": "0x0",
        "input": "0x48a429f9000000000000000000000000fff9976782d46cc05630d1f6ebab18b2324d6b140000000000000000000000001c7d4b196cb0c7b01d743fbc6116a902379c72380000000000000000000000000000000000000000000000000000000000800000000000000000000000000000000000000000000000000000000000000000000a000000000000000000000000be98d00e9f9676f7195985d278b40f5a4610da800000000000000000000000009c93926bcef5af829fa2e9b096fabb87508350ae0000000000000000000000000000000000000000000000000000000000000001",
        "nonce": "0x9",
        "chainId": "0xaa36a7"
      },
      "additionalContracts": [],
      "isFixedGasLimit": false
    },
    {
      "hash": "0x75da5e870a56473d47a09d741a9eb198e87fc27a7f12ff0842561acf2663b19b",
      "transactionType": "CALL",
      "contractName": null,
      "contractAddress": "0xbe98d00e9f9676f7195985d278b40f5a4610da80",
      "function": "updateLiquidityAllowlist((address,address,uint24,int24,address),address,bool)",
      "arguments": [
        "(0xfFf9976782d46CC05630D1f6eBAb18b2324d6B14, 0x1c7D4B196Cb0C7B01d743Fbc6116a902379C7238, 8388608, 10, 0xbe98d00E9f9676F7195985d278b40F5A4610Da80)",
        "0x429ba70129df741B2Ca2a85BC3A2a3328e5c09b4",
        "true"
      ],
      "transaction": {
        "from": "0x4b992f2fbf714c0fcbb23bac5130ace48cad00cd",
        "to": "0xbe98d00e9f9676f7195985d278b40f5a4610da80",
        "gas": "0x10f63",
        "value": "0x0",
        "input": "0x48a429f9000000000000000000000000fff9976782d46cc05630d1f6ebab18b2324d6b140000000000000000000000001c7d4b196cb0c7b01d743fbc6116a902379c72380000000000000000000000000000000000000000000000000000000000800000000000000000000000000000000000000000000000000000000000000000000a000000000000000000000000be98d00e9f9676f7195985d278b40f5a4610da80000000000000000000000000429ba70129df741b2ca2a85bc3a2a3328e5c09b40000000000000000000000000000000000000000000000000000000000000001",
        "nonce": "0xa",
        "chainId": "0xaa36a7"
      },
      "additionalContracts": [],
      "isFixedGasLimit": false
    },
    {
      "hash": "0x3e64e077551e383743a9a0d65b391f3cc8161f19b3bd92f6dcd64c096b808189",
      "transactionType": "CALL",
      "contractName": null,
      "contractAddress": "0x9c93926bcef5af829fa2e9b096fabb87508350ae",
      "function": "setKeeperConfig((address,address,uint24,int24,address),(uint256,uint256,uint256,uint256,uint256))",
      "arguments": [
        "(0xfFf9976782d46CC05630D1f6eBAb18b2324d6B14, 0x1c7D4B196Cb0C7B01d743Fbc6116a902379C7238, 8388608, 10, 0xbe98d00E9f9676F7195985d278b40F5A4610Da80)",
        "(100, 300, 200, 300, 120)"
      ],
      "transaction": {
        "from": "0x4b992f2fbf714c0fcbb23bac5130ace48cad00cd",
        "to": "0x9c93926bcef5af829fa2e9b096fabb87508350ae",
        "gas": "0x2f020",
        "value": "0x0",
        "input": "0x6f31470a000000000000000000000000fff9976782d46cc05630d1f6ebab18b2324d6b140000000000000000000000001c7d4b196cb0c7b01d743fbc6116a902379c72380000000000000000000000000000000000000000000000000000000000800000000000000000000000000000000000000000000000000000000000000000000a000000000000000000000000be98d00e9f9676f7195985d278b40f5a4610da800000000000000000000000000000000000000000000000000000000000000064000000000000000000000000000000000000000000000000000000000000012c00000000000000000000000000000000000000000000000000000000000000c8000000000000000000000000000000000000000000000000000000000000012c0000000000000000000000000000000000000000000000000000000000000078",
        "nonce": "0xb",
        "chainId": "0xaa36a7"
      },
      "additionalContracts": [],
      "isFixedGasLimit": false
    },
    {
      "hash": "0x58d8fc20c0d30bd65bcfc5a8e381c6a80380b1006c30e3cb779b5f1fbcd1fca7",
      "transactionType": "CALL",
      "contractName": null,
      "contractAddress": "0x5e2dd3d96e81925e142d2f0de2916aa952bb598f",
      "function": "configurePool((address,address,uint24,int24,address),(int24,int24,uint64,uint256))",
      "arguments": [
        "(0xfFf9976782d46CC05630D1f6eBAb18b2324d6B14, 0x1c7D4B196Cb0C7B01d743Fbc6116a902379C7238, 8388608, 10, 0xbe98d00E9f9676F7195985d278b40F5A4610Da80)",
        "(-100, 100, 60, 500)"
      ],
      "transaction": {
        "from": "0x4b992f2fbf714c0fcbb23bac5130ace48cad00cd",
        "to": "0x5e2dd3d96e81925e142d2f0de2916aa952bb598f",
        "gas": "0x1a507",
        "value": "0x0",
        "input": "0xd6388983000000000000000000000000fff9976782d46cc05630d1f6ebab18b2324d6b140000000000000000000000001c7d4b196cb0c7b01d743fbc6116a902379c72380000000000000000000000000000000000000000000000000000000000800000000000000000000000000000000000000000000000000000000000000000000a000000000000000000000000be98d00e9f9676f7195985d278b40f5a4610da80ffffffffffffffffffffffffffffffffffffffffffffffffffffffffffffff9c0000000000000000000000000000000000000000000000000000000000000064000000000000000000000000000000000000000000000000000000000000003c00000000000000000000000000000000000000000000000000000000000001f4",
        "nonce": "0xc",
        "chainId": "0xaa36a7"
      },
      "additionalContracts": [],
      "isFixedGasLimit": false
    }
  ],
  "receipts": [
    {
      "status": "0x1",
      "cumulativeGasUsed": "0xbe1d1e",
      "logs": [
        {
          "address": "0xbe98d00e9f9676f7195985d278b40f5a4610da80",
          "topics": [
            "0x729920d0202c6d66daa9b0071fbd7faf2987788c9edbd2b11524174bc3572797",
            "0x037d0bca6c85f90b255a3f1a74c8c9df99531d41e39af82e16e89b18c05f1960"
          ],
          "data": "0xff61491a931112ddf1bd8147cd1b641375f79f5825126d665480874634fd0aceeaa020c61cc479712813461ce153894a96a6c00b21ed0cfc2798d1f9a9e9c94a0000000000000000000000000000000000000000000000000000000000000bb8",
          "blockHash": "0x2330c6f10cd887cf7648ccaa14a74d2d28961f76ec080cc95dc0c71238946a13",
          "blockNumber": "0x93d5ee",
          "blockTimestamp": "0x6922c3d4",
          "transactionHash": "0x6468372692ad49f5ddd1a96a2a7278f4885d2146b880ea937baee3c39b034253",
          "transactionIndex": "0x40",
          "logIndex": "0x143",
          "removed": false
        }
      ],
      "logsBloom": "0x00000000000000000000000000000000000000000000000000000000000000000000000000008000000000000000000000000000000000800000000000000000000000000000000000000000000000000000000080000000000000000000000000000000000000000000000000000000000000000000000000000000000000000000000000000000000000000000000000000000000000000000000000000000002000000000000000000000000000000000000000000000000000000000000000000000000000000200001000001000000000000000001000000000000000000000000000000040000000000000000000000000000000000000000000000000",
      "type": "0x2",
      "transactionHash": "0x6468372692ad49f5ddd1a96a2a7278f4885d2146b880ea937baee3c39b034253",
      "transactionIndex": "0x40",
      "blockHash": "0x2330c6f10cd887cf7648ccaa14a74d2d28961f76ec080cc95dc0c71238946a13",
      "blockNumber": "0x93d5ee",
      "gasUsed": "0x28494",
      "effectiveGasPrice": "0x117b14",
      "from": "0x4b992f2fbf714c0fcbb23bac5130ace48cad00cd",
      "to": "0xbe98d00e9f9676f7195985d278b40f5a4610da80",
      "contractAddress": null
    },
    {
      "status": "0x1",
      "cumulativeGasUsed": "0xbee9bf",
      "logs": [
        {
          "address": "0xbe98d00e9f9676f7195985d278b40f5a4610da80",
          "topics": [
            "0x77e818f5e2dbc8239b6d6ec59292dcc331d4eccf3584e9b2f7ac08d2d1cb4856",
            "0x037d0bca6c85f90b255a3f1a74c8c9df99531d41e39af82e16e89b18c05f1960"
          ],
          "data": "0xffffffffffffffffffffffffffffffffffffffffffffffffffffffffffffff9c0000000000000000000000000000000000000000000000000000000000000064",
          "blockHash": "0x2330c6f10cd887cf7648ccaa14a74d2d28961f76ec080cc95dc0c71238946a13",
          "blockNumber": "0x93d5ee",
          "blockTimestamp": "0x6922c3d4",
          "transactionHash": "0x527862c380730135ef7c942d4bf2a265e499ed3fd102b8034a3eaf55be426a8f",
          "transactionIndex": "0x41",
          "logIndex": "0x144",
          "removed": false
        },
        {
          "address": "0xbe98d00e9f9676f7195985d278b40f5a4610da80",
          "topics": [
            "0xe43957927a559e4d039afa4625e1c34be93476635be5baa87d02d210d45985b2",
            "0x037d0bca6c85f90b255a3f1a74c8c9df99531d41e39af82e16e89b18c05f1960"
          ],
          "data": "0xffffffffffffffffffffffffffffffffffffffffffffffffffffffffffffff9c0000000000000000000000000000000000000000000000000000000000000064",
          "blockHash": "0x2330c6f10cd887cf7648ccaa14a74d2d28961f76ec080cc95dc0c71238946a13",
          "blockNumber": "0x93d5ee",
          "blockTimestamp": "0x6922c3d4",
          "transactionHash": "0x527862c380730135ef7c942d4bf2a265e499ed3fd102b8034a3eaf55be426a8f",
          "transactionIndex": "0x41",
          "logIndex": "0x145",
          "removed": false
        }
      ],
      "logsBloom": "0x00000000000000000000000000000000000000000000000000000008000000000040000000008000000000002000000000000040000000800000000000000000000000000000000000000000000000000000000000000000000000000000000100000000000001000000000000000000000000000000000000000000000000000000000000000000000000000000000000000000000000000000000000000000000000000000000000000000000000000000000000000000000000000000000000000000000000000000001000001000000000000000001000000000000000000000000000000040000000000000000000000000000000000000000000000000",
      "type": "0x2",
      "transactionHash": "0x527862c380730135ef7c942d4bf2a265e499ed3fd102b8034a3eaf55be426a8f",
      "transactionIndex": "0x41",
      "blockHash": "0x2330c6f10cd887cf7648ccaa14a74d2d28961f76ec080cc95dc0c71238946a13",
      "blockNumber": "0x93d5ee",
      "gasUsed": "0xcca1",
      "effectiveGasPrice": "0x117b14",
      "from": "0x4b992f2fbf714c0fcbb23bac5130ace48cad00cd",
      "to": "0xbe98d00e9f9676f7195985d278b40f5a4610da80",
      "contractAddress": null
    },
    {
      "status": "0x1",
      "cumulativeGasUsed": "0xbfae3b",
      "logs": [
        {
          "address": "0xbe98d00e9f9676f7195985d278b40f5a4610da80",
          "topics": [
            "0xc337381799abf8ffeaaa48855eb4cd6074f13a99c4aa246a62d7d83b507fa24f",
            "0x037d0bca6c85f90b255a3f1a74c8c9df99531d41e39af82e16e89b18c05f1960",
            "0x0000000000000000000000005e2dd3d96e81925e142d2f0de2916aa952bb598f"
          ],
          "data": "0x0000000000000000000000000000000000000000000000000000000000000001",
          "blockHash": "0x2330c6f10cd887cf7648ccaa14a74d2d28961f76ec080cc95dc0c71238946a13",
          "blockNumber": "0x93d5ee",
          "blockTimestamp": "0x6922c3d4",
          "transactionHash": "0x3d5ea4813754aca15de281fd7a97c9717eb3aa5ec1a81b72966e22d946f8b0aa",
          "transactionIndex": "0x42",
          "logIndex": "0x146",
          "removed": false
        }
      ],
      "logsBloom": "0x00000000000000000000000000000000000000000000000000000000000000000000000000008000020000000000000000000000000000802000000000000000000000000000000000000000000000000000000000000000000000000000000000000000000000000000000000000000000000000000000000200000000000000000000000000000000000000000000000000004000000000000000000000000000000000000000000000000000000000000000000000100000000000000000000000000000000000000001000001000000000000000001000000000000000000000000000000040000000000000000000000000000000000000000020000000",
      "type": "0x2",
      "transactionHash": "0x3d5ea4813754aca15de281fd7a97c9717eb3aa5ec1a81b72966e22d946f8b0aa",
      "transactionIndex": "0x42",
      "blockHash": "0x2330c6f10cd887cf7648ccaa14a74d2d28961f76ec080cc95dc0c71238946a13",
      "blockNumber": "0x93d5ee",
      "gasUsed": "0xc47c",
      "effectiveGasPrice": "0x117b14",
      "from": "0x4b992f2fbf714c0fcbb23bac5130ace48cad00cd",
      "to": "0xbe98d00e9f9676f7195985d278b40f5a4610da80",
      "contractAddress": null
    },
    {
      "status": "0x1",
      "cumulativeGasUsed": "0xc072ab",
      "logs": [
        {
          "address": "0xbe98d00e9f9676f7195985d278b40f5a4610da80",
          "topics": [
            "0xc337381799abf8ffeaaa48855eb4cd6074f13a99c4aa246a62d7d83b507fa24f",
            "0x037d0bca6c85f90b255a3f1a74c8c9df99531d41e39af82e16e89b18c05f1960",
            "0x0000000000000000000000004b992f2fbf714c0fcbb23bac5130ace48cad00cd"
          ],
          "data": "0x0000000000000000000000000000000000000000000000000000000000000001",
          "blockHash": "0x2330c6f10cd887cf7648ccaa14a74d2d28961f76ec080cc95dc0c71238946a13",
          "blockNumber": "0x93d5ee",
          "blockTimestamp": "0x6922c3d4",
          "transactionHash": "0xc3feeb05b5c708303856f7addc99c1e58ec278971656ffd06fc70a91c7e79335",
          "transactionIndex": "0x43",
          "logIndex": "0x147",
          "removed": false
        }
      ],
      "logsBloom": "0x00000000000000000000000000000000000000000000000000000000000000000000000000008000000000000000000000000002000000802000000000000000000000000000000000000000000000000000000000000000000100000000000000000000000000000000000000020000000000000000000000000000000000000000000000000000000000000000000000000004000000000000000000000000000000000000000000000000000000000000000000000100000000000000000000000000000000000000001000001000000000000000001000000000000000000000000000000040000000000000000000000000000000000000000000000000",
      "type": "0x2",
      "transactionHash": "0xc3feeb05b5c708303856f7addc99c1e58ec278971656ffd06fc70a91c7e79335",
      "transactionIndex": "0x43",
      "blockHash": "0x2330c6f10cd887cf7648ccaa14a74d2d28961f76ec080cc95dc0c71238946a13",
      "blockNumber": "0x93d5ee",
      "gasUsed": "0xc470",
      "effectiveGasPrice": "0x117b14",
      "from": "0x4b992f2fbf714c0fcbb23bac5130ace48cad00cd",
      "to": "0xbe98d00e9f9676f7195985d278b40f5a4610da80",
      "contractAddress": null
    },
    {
      "status": "0x1",
      "cumulativeGasUsed": "0xc13727",
      "logs": [
        {
          "address": "0xbe98d00e9f9676f7195985d278b40f5a4610da80",
          "topics": [
            "0xc337381799abf8ffeaaa48855eb4cd6074f13a99c4aa246a62d7d83b507fa24f",
            "0x037d0bca6c85f90b255a3f1a74c8c9df99531d41e39af82e16e89b18c05f1960",
            "0x0000000000000000000000009c93926bcef5af829fa2e9b096fabb87508350ae"
          ],
          "data": "0x0000000000000000000000000000000000000000000000000000000000000001",
          "blockHash": "0x2330c6f10cd887cf7648ccaa14a74d2d28961f76ec080cc95dc0c71238946a13",
          "blockNumber": "0x93d5ee",
          "blockTimestamp": "0x6922c3d4",
          "transactionHash": "0xec7769b9f0e88672a3337c5a46fb1ae4f7eb4c94fad6e617ac5342aad7a19888",
          "transactionIndex": "0x44",
          "logIndex": "0x148",
          "removed": false
        }
      ],
      "logsBloom": "0x00000000000000000000000000000000000000000000000000000000000000000000000000008000000000000000000000000000000000802000000000000000000000000004000000000000000000000000000000000000000000000000000000000000000000000000000000000000000000000000000000000000000000000000000000000000000000000000000000000004000000000000000000000000000000000000000000000000000000000000000000000100000000000000000000040000000000000000001000001000000004000000001000000000000000000000000000000040000000000000000000000000000000000000000000000000",
      "type": "0x2",
      "transactionHash": "0xec7769b9f0e88672a3337c5a46fb1ae4f7eb4c94fad6e617ac5342aad7a19888",
      "transactionIndex": "0x44",
      "blockHash": "0x2330c6f10cd887cf7648ccaa14a74d2d28961f76ec080cc95dc0c71238946a13",
      "blockNumber": "0x93d5ee",
      "gasUsed": "0xc47c",
      "effectiveGasPrice": "0x117b14",
      "from": "0x4b992f2fbf714c0fcbb23bac5130ace48cad00cd",
      "to": "0xbe98d00e9f9676f7195985d278b40f5a4610da80",
      "contractAddress": null
    },
    {
      "status": "0x1",
      "cumulativeGasUsed": "0xc1fba3",
      "logs": [
        {
          "address": "0xbe98d00e9f9676f7195985d278b40f5a4610da80",
          "topics": [
            "0xc337381799abf8ffeaaa48855eb4cd6074f13a99c4aa246a62d7d83b507fa24f",
            "0x037d0bca6c85f90b255a3f1a74c8c9df99531d41e39af82e16e89b18c05f1960",
            "0x000000000000000000000000429ba70129df741b2ca2a85bc3a2a3328e5c09b4"
          ],
          "data": "0x0000000000000000000000000000000000000000000000000000000000000001",
          "blockHash": "0x2330c6f10cd887cf7648ccaa14a74d2d28961f76ec080cc95dc0c71238946a13",
          "blockNumber": "0x93d5ee",
          "blockTimestamp": "0x6922c3d4",
          "transactionHash": "0x75da5e870a56473d47a09d741a9eb198e87fc27a7f12ff0842561acf2663b19b",
          "transactionIndex": "0x45",
          "logIndex": "0x149",
          "removed": false
        }
      ],
      "logsBloom": "0x00000000000000000000000000000000000000000000000000000000000000000000000000008040080000000000000000000000000000802000000000000000000000000000000000000000000000000000000000000000000000000000000000000000000000000000000000000000000000000000000000000800000000000000000000000000000000000000000000000004000000000000000000000000000000000000000000000000000000000000000000000100000000000000000000000000000000000000001000001000000000000000001000000000000000000000000000000040000000000000000000000000000000000000000000000000",
      "type": "0x2",
      "transactionHash": "0x75da5e870a56473d47a09d741a9eb198e87fc27a7f12ff0842561acf2663b19b",
      "transactionIndex": "0x45",
      "blockHash": "0x2330c6f10cd887cf7648ccaa14a74d2d28961f76ec080cc95dc0c71238946a13",
      "blockNumber": "0x93d5ee",
      "gasUsed": "0xc47c",
      "effectiveGasPrice": "0x117b14",
      "from": "0x4b992f2fbf714c0fcbb23bac5130ace48cad00cd",
      "to": "0xbe98d00e9f9676f7195985d278b40f5a4610da80",
      "contractAddress": null
    },
    {
      "status": "0x1",
      "cumulativeGasUsed": "0xc41c2a",
      "logs": [
        {
          "address": "0x9c93926bcef5af829fa2e9b096fabb87508350ae",
          "topics": [
            "0xbeaf02f0d8dcdfbc315e76677084129235a8a874ca629ea59f521c7bc8131ea5",
            "0x037d0bca6c85f90b255a3f1a74c8c9df99531d41e39af82e16e89b18c05f1960"
          ],
          "data": "0x0000000000000000000000000000000000000000000000000000000000000064000000000000000000000000000000000000000000000000000000000000012c00000000000000000000000000000000000000000000000000000000000000c8000000000000000000000000000000000000000000000000000000000000012c0000000000000000000000000000000000000000000000000000000000000078",
          "blockHash": "0x2330c6f10cd887cf7648ccaa14a74d2d28961f76ec080cc95dc0c71238946a13",
          "blockNumber": "0x93d5ee",
          "blockTimestamp": "0x6922c3d4",
          "transactionHash": "0x3e64e077551e383743a9a0d65b391f3cc8161f19b3bd92f6dcd64c096b808189",
          "transactionIndex": "0x46",
          "logIndex": "0x14a",
          "removed": false
        }
      ],
      "logsBloom": "0x00000000000000000000000000000000000000000000000000000000000000000400000000008000000000000000000000000000000000800000000000000000000000000000000000000000000000000000000000000000000000000000000000000000040000000000000000000000000000000400000000000000000000000000000000000000000000000000000008000000000000000000000000000000000000000000000000000000000000000000000000000000000000000000000000000000000000000020000000000000000000000000001000000000000000000000000000000000000000000000000000000000000000000000000000000002",
      "type": "0x2",
      "transactionHash": "0x3e64e077551e383743a9a0d65b391f3cc8161f19b3bd92f6dcd64c096b808189",
      "transactionIndex": "0x46",
      "blockHash": "0x2330c6f10cd887cf7648ccaa14a74d2d28961f76ec080cc95dc0c71238946a13",
      "blockNumber": "0x93d5ee",
      "gasUsed": "0x22087",
      "effectiveGasPrice": "0x117b14",
      "from": "0x4b992f2fbf714c0fcbb23bac5130ace48cad00cd",
      "to": "0x9c93926bcef5af829fa2e9b096fabb87508350ae",
      "contractAddress": null
    },
    {
      "status": "0x1",
      "cumulativeGasUsed": "0xc53c0c",
      "logs": [
        {
          "address": "0x5e2dd3d96e81925e142d2f0de2916aa952bb598f",
          "topics": [
            "0x70666b25e9887efbfc9f2adaa76f4307e0dc040ff0cb4a81fc568873e154df6d",
            "0x037d0bca6c85f90b255a3f1a74c8c9df99531d41e39af82e16e89b18c05f1960"
          ],
          "data": "0xffffffffffffffffffffffffffffffffffffffffffffffffffffffffffffff9c0000000000000000000000000000000000000000000000000000000000000064000000000000000000000000000000000000000000000000000000000000003c00000000000000000000000000000000000000000000000000000000000001f4",
          "blockHash": "0x2330c6f10cd887cf7648ccaa14a74d2d28961f76ec080cc95dc0c71238946a13",
          "blockNumber": "0x93d5ee",
          "blockTimestamp": "0x6922c3d4",
          "transactionHash": "0x58d8fc20c0d30bd65bcfc5a8e381c6a80380b1006c30e3cb779b5f1fbcd1fca7",
          "transactionIndex": "0x47",
          "logIndex": "0x14b",
          "removed": false
        }
      ],
      "logsBloom": "0x00000000000000000000000000000000000000000000000000000000002000000000000000008000000000000000000000000000000000800000000000000000000000000000000000000000000000000000000000000000000000000000000000000000000000000000000000000000000000000000000000000000000000000000000000000000000000000000000000000000000000000000000000000000000000000000000000200000000000000000000000000000000000000000000000000000000000004000000000000000000000000000001000000800000000200000000000000000000000000000000000000000000008000000000000000000",
      "type": "0x2",
      "transactionHash": "0x58d8fc20c0d30bd65bcfc5a8e381c6a80380b1006c30e3cb779b5f1fbcd1fca7",
      "transactionIndex": "0x47",
      "blockHash": "0x2330c6f10cd887cf7648ccaa14a74d2d28961f76ec080cc95dc0c71238946a13",
      "blockNumber": "0x93d5ee",
      "gasUsed": "0x11fe2",
      "effectiveGasPrice": "0x117b14",
      "from": "0x4b992f2fbf714c0fcbb23bac5130ace48cad00cd",
      "to": "0x5e2dd3d96e81925e142d2f0de2916aa952bb598f",
      "contractAddress": null
    }
  ],
  "libraries": [],
  "pending": [],
  "returns": {},
  "timestamp": 1763886036842,
  "chain": 11155111,
  "commit": "5de0a6e"
}