{
  "transactions": [
    {
      "hash": "0x9e7bcc2772e70cf84ad031884616556ed5920595383605a8cd2a7f911c1215ee",
      "transactionType": "CREATE",
      "contractName": "MockERC20",
      "contractAddress": "0x002307f602cc9f866ab59412dcf3f64177b29c51",
      "function": null,
      "arguments": [
        "PegUSD",
        "PGUSD",
        "6"
      ],
      "transaction": {
        "from": "0x4b992f2fbf714c0fcbb23bac5130ace48cad00cd",
        "gas": "0xde7f8",
        "value": "0x0",
        "input": "0x60e0806040523461040657610f5c803803809161001c828561040a565b83398101906060818303126104065780516001600160401b038111610406578261004791830161042d565b60208201519092906001600160401b0381116104065760409161006b91840161042d565b91015160ff811681036104065782516001600160401b038111610337576100925f54610482565b601f81116103b7575b506020601f821160011461035657819293945f9261034b575b50508160011b915f199060031b1c1916175f555b81516001600160401b038111610337576100e3600154610482565b601f81116102d4575b50602092601f821160011461027357928192935f92610268575b50508160011b915f199060031b1c1916176001555b6080524660a0526040515f905f54918161013484610482565b9182825260208201946001811690815f1461024c5750600114610202575b61015e9250038261040a565b51902060405160208101917f8b73c3c69bb8fe3d512ecc4cf759cc79239f7b179b0ffacaa9a75d522b39400f835260408201527fc89efdaa54c0f20c7adf612882df0950f5a951637e0307cdcb4c672f298b8bc660608201524660808201523060a082015260a081526101d260c08261040a565b51902060c052604051610a8190816104bb8239608051816105dd015260a051816108dd015260c051816109030152f35b505f80805290915f516020610f3c5f395f51905f525b81831061023057505090602061015e92820101610152565b6020919350806001915483858801015201910190918392610218565b60ff191686525061015e92151560051b82016020019050610152565b015190505f80610106565b601f1982169360015f52805f20915f5b8681106102bc57508360019596106102a4575b505050811b0160015561011b565b01515f1960f88460031b161c191690555f8080610296565b91926020600181928685015181550194019201610283565b60015f527fb10e2d527612073b26eecdfd717e6a320cf44b4afac2b0732d9fcbe2b7fa0cf6601f830160051c8101916020841061032d575b601f0160051c01905b81811061032257506100ec565b5f8155600101610315565b909150819061030c565b634e487b7160e01b5f52604160045260245ffd5b015190505f806100b4565b601f198216905f8052805f20915f5b81811061039f57509583600195969710610387575b505050811b015f556100c8565b01515f1960f88460031b161c191690555f808061037a565b9192602060018192868b015181550194019201610365565b5f80525f516020610f3c5f395f51905f52601f830160051c810191602084106103fc575b601f0160051c01905b8181106103f1575061009b565b5f81556001016103e4565b90915081906103db565b5f80fd5b601f909101601f19168101906001600160401b0382119082101761033757604052565b81601f82011215610406578051906001600160401b0382116103375760405192610461601f8401601f19166020018561040a565b8284526020838301011161040657815f9260208093018386015e8301015290565b90600182811c921680156104b0575b602083101461049c57565b634e487b7160e01b5f52602260045260245ffd5b91607f169161049156fe60806040526004361015610011575f80fd5b5f3560e01c806306fdde0314610767578063095ea7b3146106ee57806318160ddd146106d157806323b872dd14610601578063313ce567146105c45780633644e515146105a257806340c10f191461052a57806370a08231146104f25780637ecebe00146104ba57806395d89b41146103e05780639dc29fac14610380578063a9059cbb1461030b578063d505accf146101075763dd62ed3e146100b3575f80fd5b34610103576040366003190112610103576100cc6108a1565b6100d46108b7565b6001600160a01b039182165f908152600460209081526040808320949093168252928352819020549051908152f35b5f80fd5b346101035760e0366003190112610103576101206108a1565b6101286108b7565b6044356064359260843560ff8116809103610103574285106102cc5760805f916020936101536108da565b9060018060a01b03169687855260058652604085209889549960018b01905560405190878201927f6e71edae12b1b97f4d1f60370fef10105fa2faae0126114a169c64845d6126c984528a604084015260018060a01b03169a8b6060840152898784015260a083015260c082015260c081526101d060e082610841565b519020604051908682019261190160f01b845260228301526042820152604281526101fc606282610841565b519020906040519182528482015260a435604082015260c435606082015282805260015afa156102c1575f516001600160a01b0316801515806102b8575b15610282577f8c5be1e5ebec7d5bd14f71427d1e84f3dd0314c0f7b2291e5b200ac8c7c3b925916020915f526004825260405f20855f5282528060405f2055604051908152a3005b60405162461bcd60e51b815260206004820152600e60248201526d24a72b20a624a22fa9a4a3a722a960911b6044820152606490fd5b5082811461023a565b6040513d5f823e3d90fd5b60405162461bcd60e51b815260206004820152601760248201527614115493525517d11150511312539157d1561412549151604a1b6044820152606490fd5b34610103576040366003190112610103576103246108a1565b60243590335f52600360205260405f2061033f8382546108cd565b905560018060a01b031690815f52600360205260405f208181540190556040519081525f516020610a555f395f51905f5260203392a3602060405160018152f35b34610103576040366003190112610103575f61039a6108a1565b5f516020610a555f395f51905f5260206024359260018060a01b03169283855260038252604085206103cd8282546108cd565b90558060025403600255604051908152a3005b34610103575f366003190112610103576040515f60015461040081610809565b80845290600181169081156104965750600114610438575b6104348361042881850382610841565b60405191829182610877565b0390f35b60015f9081527fb10e2d527612073b26eecdfd717e6a320cf44b4afac2b0732d9fcbe2b7fa0cf6939250905b80821061047c57509091508101602001610428610418565b919260018160209254838588010152019101909291610464565b60ff191660208086019190915291151560051b840190910191506104289050610418565b34610103576020366003190112610103576001600160a01b036104db6108a1565b165f526005602052602060405f2054604051908152f35b34610103576020366003190112610103576001600160a01b036105136108a1565b165f526003602052602060405f2054604051908152f35b34610103576040366003190112610103576105436108a1565b602435906002549082820180921161058e5760205f516020610a555f395f51905f52915f9360025560018060a01b0316938484526003825260408420818154019055604051908152a3005b634e487b7160e01b5f52601160045260245ffd5b34610103575f3660031901126101035760206105bc6108da565b604051908152f35b34610103575f36600319011261010357602060405160ff7f0000000000000000000000000000000000000000000000000000000000000000168152f35b346101035760603660031901126101035761061a6108a1565b6106226108b7565b6001600160a01b039091165f818152600460209081526040808320338452825290912054604435935f516020610a555f395f51905f52929185600182016106ac575b5050835f526003825260405f2061067c8682546108cd565b90556001600160a01b03165f818152600383526040908190208054870190555194855293a3602060405160018152f35b6106b5916108cd565b5f85815260048452604080822033835285529020558585610664565b34610103575f366003190112610103576020600254604051908152f35b34610103576040366003190112610103576107076108a1565b335f8181526004602090815260408083206001600160a01b03909516808452948252918290206024359081905591519182527f8c5be1e5ebec7d5bd14f71427d1e84f3dd0314c0f7b2291e5b200ac8c7c3b92591a3602060405160018152f35b34610103575f366003190112610103576040515f5f5461078681610809565b808452906001811690811561049657506001146107ad576104348361042881850382610841565b5f8080527f290decd9548b62a8d60345a988386fc84ba6bc95484008f6362f93160ef3e563939250905b8082106107ef57509091508101602001610428610418565b9192600181602092548385880101520191019092916107d7565b90600182811c92168015610837575b602083101461082357565b634e487b7160e01b5f52602260045260245ffd5b91607f1691610818565b90601f8019910116810190811067ffffffffffffffff82111761086357604052565b634e487b7160e01b5f52604160045260245ffd5b602060409281835280519182918282860152018484015e5f828201840152601f01601f1916010190565b600435906001600160a01b038216820361010357565b602435906001600160a01b038216820361010357565b9190820391821161058e57565b467f000000000000000000000000000000000000000000000000000000000000000003610925577f000000000000000000000000000000000000000000000000000000000000000090565b6040515f905f54918161093784610809565b9182825260208201946001811690815f14610a3857506001146109db575b61096192500382610841565b51902060405160208101917f8b73c3c69bb8fe3d512ecc4cf759cc79239f7b179b0ffacaa9a75d522b39400f835260408201527fc89efdaa54c0f20c7adf612882df0950f5a951637e0307cdcb4c672f298b8bc660608201524660808201523060a082015260a081526109d560c082610841565b51902090565b505f80805290917f290decd9548b62a8d60345a988386fc84ba6bc95484008f6362f93160ef3e5635b818310610a1c57505090602061096192820101610955565b6020919350806001915483858801015201910190918392610a04565b60ff191686525061096192151560051b8201602001905061095556feddf252ad1be2c89b69c2b068fc378daa952ba7f163c4a11628f55a4df523b3efa164736f6c634300081e000a290decd9548b62a8d60345a988386fc84ba6bc95484008f6362f93160ef3e563000000000000000000000000000000000000000000000000000000000000006000000000000000000000000000000000000000000000000000000000000000a000000000000000000000000000000000000000000000000000000000000000060000000000000000000000000000000000000000000000000000000000000006506567555344000000000000000000000000000000000000000000000000000000000000000000000000000000000000000000000000000000000000000000055047555344000000000000000000000000000000000000000000000000000000",
        "nonce": "0x19",
        "chainId": "0xaa36a7"
      },
      "additionalContracts": [],
      "isFixedGasLimit": false
    },
    {
      "hash": "0xd70c32bb3bcc90de9fdbb30c1ce8fdf14806e55598e1ff614859cfd7b9360ce1",
      "transactionType": "CREATE",
      "contractName": "MockERC20",
      "contractAddress": "0xf7d961d686ca264b20735d6e8685ebe603d8cffd",
      "function": null,
      "arguments": [
        "PegETH",
        "PGETH",
        "18"
      ],
      "transaction": {
        "from": "0x4b992f2fbf714c0fcbb23bac5130ace48cad00cd",
        "gas": "0xde7f8",
        "value": "0x0",
        "input": "0x60e0806040523461040657610f5c803803809161001c828561040a565b83398101906060818303126104065780516001600160401b038111610406578261004791830161042d565b60208201519092906001600160401b0381116104065760409161006b91840161042d565b91015160ff811681036104065782516001600160401b038111610337576100925f54610482565b601f81116103b7575b506020601f821160011461035657819293945f9261034b575b50508160011b915f199060031b1c1916175f555b81516001600160401b038111610337576100e3600154610482565b601f81116102d4575b50602092601f821160011461027357928192935f92610268575b50508160011b915f199060031b1c1916176001555b6080524660a0526040515f905f54918161013484610482565b9182825260208201946001811690815f1461024c5750600114610202575b61015e9250038261040a565b51902060405160208101917f8b73c3c69bb8fe3d512ecc4cf759cc79239f7b179b0ffacaa9a75d522b39400f835260408201527fc89efdaa54c0f20c7adf612882df0950f5a951637e0307cdcb4c672f298b8bc660608201524660808201523060a082015260a081526101d260c08261040a565b51902060c052604051610a8190816104bb8239608051816105dd015260a051816108dd015260c051816109030152f35b505f80805290915f516020610f3c5f395f51905f525b81831061023057505090602061015e92820101610152565b6020919350806001915483858801015201910190918392610218565b60ff191686525061015e92151560051b82016020019050610152565b015190505f80610106565b601f1982169360015f52805f20915f5b8681106102bc57508360019596106102a4575b505050811b0160015561011b565b01515f1960f88460031b161c191690555f8080610296565b91926020600181928685015181550194019201610283565b60015f527fb10e2d527612073b26eecdfd717e6a320cf44b4afac2b0732d9fcbe2b7fa0cf6601f830160051c8101916020841061032d575b601f0160051c01905b81811061032257506100ec565b5f8155600101610315565b909150819061030c565b634e487b7160e01b5f52604160045260245ffd5b015190505f806100b4565b601f198216905f8052805f20915f5b81811061039f57509583600195969710610387575b505050811b015f556100c8565b01515f1960f88460031b161c191690555f808061037a565b9192602060018192868b015181550194019201610365565b5f80525f516020610f3c5f395f51905f52601f830160051c810191602084106103fc575b601f0160051c01905b8181106103f1575061009b565b5f81556001016103e4565b90915081906103db565b5f80fd5b601f909101601f19168101906001600160401b0382119082101761033757604052565b81601f82011215610406578051906001600160401b0382116103375760405192610461601f8401601f19166020018561040a565b8284526020838301011161040657815f9260208093018386015e8301015290565b90600182811c921680156104b0575b602083101461049c57565b634e487b7160e01b5f52602260045260245ffd5b91607f169161049156fe60806040526004361015610011575f80fd5b5f3560e01c806306fdde0314610767578063095ea7b3146106ee57806318160ddd146106d157806323b872dd14610601578063313ce567146105c45780633644e515146105a257806340c10f191461052a57806370a08231146104f25780637ecebe00146104ba57806395d89b41146103e05780639dc29fac14610380578063a9059cbb1461030b578063d505accf146101075763dd62ed3e146100b3575f80fd5b34610103576040366003190112610103576100cc6108a1565b6100d46108b7565b6001600160a01b039182165f908152600460209081526040808320949093168252928352819020549051908152f35b5f80fd5b346101035760e0366003190112610103576101206108a1565b6101286108b7565b6044356064359260843560ff8116809103610103574285106102cc5760805f916020936101536108da565b9060018060a01b03169687855260058652604085209889549960018b01905560405190878201927f6e71edae12b1b97f4d1f60370fef10105fa2faae0126114a169c64845d6126c984528a604084015260018060a01b03169a8b6060840152898784015260a083015260c082015260c081526101d060e082610841565b519020604051908682019261190160f01b845260228301526042820152604281526101fc606282610841565b519020906040519182528482015260a435604082015260c435606082015282805260015afa156102c1575f516001600160a01b0316801515806102b8575b15610282577f8c5be1e5ebec7d5bd14f71427d1e84f3dd0314c0f7b2291e5b200ac8c7c3b925916020915f526004825260405f20855f5282528060405f2055604051908152a3005b60405162461bcd60e51b815260206004820152600e60248201526d24a72b20a624a22fa9a4a3a722a960911b6044820152606490fd5b5082811461023a565b6040513d5f823e3d90fd5b60405162461bcd60e51b815260206004820152601760248201527614115493525517d11150511312539157d1561412549151604a1b6044820152606490fd5b34610103576040366003190112610103576103246108a1565b60243590335f52600360205260405f2061033f8382546108cd565b905560018060a01b031690815f52600360205260405f208181540190556040519081525f516020610a555f395f51905f5260203392a3602060405160018152f35b34610103576040366003190112610103575f61039a6108a1565b5f516020610a555f395f51905f5260206024359260018060a01b03169283855260038252604085206103cd8282546108cd565b90558060025403600255604051908152a3005b34610103575f366003190112610103576040515f60015461040081610809565b80845290600181169081156104965750600114610438575b6104348361042881850382610841565b60405191829182610877565b0390f35b60015f9081527fb10e2d527612073b26eecdfd717e6a320cf44b4afac2b0732d9fcbe2b7fa0cf6939250905b80821061047c57509091508101602001610428610418565b919260018160209254838588010152019101909291610464565b60ff191660208086019190915291151560051b840190910191506104289050610418565b34610103576020366003190112610103576001600160a01b036104db6108a1565b165f526005602052602060405f2054604051908152f35b34610103576020366003190112610103576001600160a01b036105136108a1565b165f526003602052602060405f2054604051908152f35b34610103576040366003190112610103576105436108a1565b602435906002549082820180921161058e5760205f516020610a555f395f51905f52915f9360025560018060a01b0316938484526003825260408420818154019055604051908152a3005b634e487b7160e01b5f52601160045260245ffd5b34610103575f3660031901126101035760206105bc6108da565b604051908152f35b34610103575f36600319011261010357602060405160ff7f0000000000000000000000000000000000000000000000000000000000000000168152f35b346101035760603660031901126101035761061a6108a1565b6106226108b7565b6001600160a01b039091165f818152600460209081526040808320338452825290912054604435935f516020610a555f395f51905f52929185600182016106ac575b5050835f526003825260405f2061067c8682546108cd565b90556001600160a01b03165f818152600383526040908190208054870190555194855293a3602060405160018152f35b6106b5916108cd565b5f85815260048452604080822033835285529020558585610664565b34610103575f366003190112610103576020600254604051908152f35b34610103576040366003190112610103576107076108a1565b335f8181526004602090815260408083206001600160a01b03909516808452948252918290206024359081905591519182527f8c5be1e5ebec7d5bd14f71427d1e84f3dd0314c0f7b2291e5b200ac8c7c3b92591a3602060405160018152f35b34610103575f366003190112610103576040515f5f5461078681610809565b808452906001811690811561049657506001146107ad576104348361042881850382610841565b5f8080527f290decd9548b62a8d60345a988386fc84ba6bc95484008f6362f93160ef3e563939250905b8082106107ef57509091508101602001610428610418565b9192600181602092548385880101520191019092916107d7565b90600182811c92168015610837575b602083101461082357565b634e487b7160e01b5f52602260045260245ffd5b91607f1691610818565b90601f8019910116810190811067ffffffffffffffff82111761086357604052565b634e487b7160e01b5f52604160045260245ffd5b602060409281835280519182918282860152018484015e5f828201840152601f01601f1916010190565b600435906001600160a01b038216820361010357565b602435906001600160a01b038216820361010357565b9190820391821161058e57565b467f000000000000000000000000000000000000000000000000000000000000000003610925577f000000000000000000000000000000000000000000000000000000000000000090565b6040515f905f54918161093784610809565b9182825260208201946001811690815f14610a3857506001146109db575b61096192500382610841565b51902060405160208101917f8b73c3c69bb8fe3d512ecc4cf759cc79239f7b179b0ffacaa9a75d522b39400f835260408201527fc89efdaa54c0f20c7adf612882df0950f5a951637e0307cdcb4c672f298b8bc660608201524660808201523060a082015260a081526109d560c082610841565b51902090565b505f80805290917f290decd9548b62a8d60345a988386fc84ba6bc95484008f6362f93160ef3e5635b818310610a1c57505090602061096192820101610955565b6020919350806001915483858801015201910190918392610a04565b60ff191686525061096192151560051b8201602001905061095556feddf252ad1be2c89b69c2b068fc378daa952ba7f163c4a11628f55a4df523b3efa164736f6c634300081e000a290decd9548b62a8d60345a988386fc84ba6bc95484008f6362f93160ef3e563000000000000000000000000000000000000000000000000000000000000006000000000000000000000000000000000000000000000000000000000000000a000000000000000000000000000000000000000000000000000000000000000120000000000000000000000000000000000000000000000000000000000000006506567455448000000000000000000000000000000000000000000000000000000000000000000000000000000000000000000000000000000000000000000055047455448000000000000000000000000000000000000000000000000000000",
        "nonce": "0x1a",
        "chainId": "0xaa36a7"
      },
      "additionalContracts": [],
      "isFixedGasLimit": false
    },
    {
      "hash": "0x39a236eeb6153b3f49e7d30cee26c46a234e9d262361d56706214abf3d2b35b7",
      "transactionType": "CALL",
      "contractName": "MockERC20",
      "contractAddress": "0x002307f602cc9f866ab59412dcf3f64177b29c51",
      "function": "mint(address,uint256)",
      "arguments": [
        "0x4b992F2Fbf714C0fCBb23baC5130Ace48CaD00cd",
        "1000000000000"
      ],
      "transaction": {
        "from": "0x4b992f2fbf714c0fcbb23bac5130ace48cad00cd",
        "to": "0x002307f602cc9f866ab59412dcf3f64177b29c51",
        "gas": "0x184fe",
        "value": "0x0",
        "input": "0x40c10f190000000000000000000000004b992f2fbf714c0fcbb23bac5130ace48cad00cd000000000000000000000000000000000000000000000000000000e8d4a51000",
        "nonce": "0x1b",
        "chainId": "0xaa36a7"
      },
      "additionalContracts": [],
      "isFixedGasLimit": false
    },
    {
      "hash": "0x449bbac0deba0b695d53c9b3e452116eb46a7c7bb472b4470d785343cfe975ab",
      "transactionType": "CALL",
      "contractName": "MockERC20",
      "contractAddress": "0xf7d961d686ca264b20735d6e8685ebe603d8cffd",
      "function": "mint(address,uint256)",
      "arguments": [
        "0x4b992F2Fbf714C0fCBb23baC5130Ace48CaD00cd",
        "1000000000000000000000"
      ],
      "transaction": {
        "from": "0x4b992f2fbf714c0fcbb23bac5130ace48cad00cd",
        "to": "0xf7d961d686ca264b20735d6e8685ebe603d8cffd",
        "gas": "0x16f93",
        "value": "0x0",
        "input": "0x40c10f190000000000000000000000004b992f2fbf714c0fcbb23bac5130ace48cad00cd00000000000000000000000000000000000000000000003635c9adc5dea00000",
        "nonce": "0x1c",
        "chainId": "0xaa36a7"
      },
      "additionalContracts": [],
      "isFixedGasLimit": false
    },
    {
      "hash": "0xd0d724d39cde0761f948c14c3b1c11530b5b261f82b341059d034ebf17419bb8",
      "transactionType": "CALL",
      "contractName": "MockERC20",
      "contractAddress": "0x002307f602cc9f866ab59412dcf3f64177b29c51",
      "function": "approve(address,uint256)",
      "arguments": [
        "0x000000000022D473030F116dDEE9F6B43aC78BA3",
        "115792089237316195423570985008687907853269984665640564039457584007913129639935"
      ],
      "transaction": {
        "from": "0x4b992f2fbf714c0fcbb23bac5130ace48cad00cd",
        "to": "0x002307f602cc9f866ab59412dcf3f64177b29c51",
        "gas": "0xf935",
        "value": "0x0",
        "input": "0x095ea7b3000000000000000000000000000000000022d473030f116ddee9f6b43ac78ba3ffffffffffffffffffffffffffffffffffffffffffffffffffffffffffffffff",
        "nonce": "0x1d",
        "chainId": "0xaa36a7"
      },
      "additionalContracts": [],
      "isFixedGasLimit": false
    },
    {
      "hash": "0xe873fd3b71aafe837c6666fbbf41b5cfd27bfb81888d90e0707f13387f875da9",
      "transactionType": "CALL",
      "contractName": "MockERC20",
      "contractAddress": "0xf7d961d686ca264b20735d6e8685ebe603d8cffd",
      "function": "approve(address,uint256)",
      "arguments": [
        "0x000000000022D473030F116dDEE9F6B43aC78BA3",
        "115792089237316195423570985008687907853269984665640564039457584007913129639935"
      ],
      "transaction": {
        "from": "0x4b992f2fbf714c0fcbb23bac5130ace48cad00cd",
        "to": "0xf7d961d686ca264b20735d6e8685ebe603d8cffd",
        "gas": "0xf935",
        "value": "0x0",
        "input": "0x095ea7b3000000000000000000000000000000000022d473030f116ddee9f6b43ac78ba3ffffffffffffffffffffffffffffffffffffffffffffffffffffffffffffffff",
        "nonce": "0x1e",
        "chainId": "0xaa36a7"
      },
      "additionalContracts": [],
      "isFixedGasLimit": false
    },
    {
      "hash": "0x53c364540e891744b170ab6275bbecc1519c9fcfc141afd743b6315f00c7c0af",
      "transactionType": "CALL",
      "contractName": "MockERC20",
      "contractAddress": "0x002307f602cc9f866ab59412dcf3f64177b29c51",
      "function": "approve(address,uint256)",
      "arguments": [
        "0x429ba70129df741B2Ca2a85BC3A2a3328e5c09b4",
        "115792089237316195423570985008687907853269984665640564039457584007913129639935"
      ],
      "transaction": {
        "from": "0x4b992f2fbf714c0fcbb23bac5130ace48cad00cd",
        "to": "0x002307f602cc9f866ab59412dcf3f64177b29c51",
        "gas": "0x10837",
        "value": "0x0",
        "input": "0x095ea7b3000000000000000000000000429ba70129df741b2ca2a85bc3a2a3328e5c09b4ffffffffffffffffffffffffffffffffffffffffffffffffffffffffffffffff",
        "nonce": "0x1f",
        "chainId": "0xaa36a7"
      },
      "additionalContracts": [],
      "isFixedGasLimit": false
    },
    {
      "hash": "0x3b4b0217196441162a65dc1cbb32fc96e60973d0076031577600efaf905fd981",
      "transactionType": "CALL",
      "contractName": "MockERC20",
      "contractAddress": "0xf7d961d686ca264b20735d6e8685ebe603d8cffd",
      "function": "approve(address,uint256)",
      "arguments": [
        "0x429ba70129df741B2Ca2a85BC3A2a3328e5c09b4",
        "115792089237316195423570985008687907853269984665640564039457584007913129639935"
      ],
      "transaction": {
        "from": "0x4b992f2fbf714c0fcbb23bac5130ace48cad00cd",
        "to": "0xf7d961d686ca264b20735d6e8685ebe603d8cffd",
        "gas": "0x10837",
        "value": "0x0",
        "input": "0x095ea7b3000000000000000000000000429ba70129df741b2ca2a85bc3a2a3328e5c09b4ffffffffffffffffffffffffffffffffffffffffffffffffffffffffffffffff",
        "nonce": "0x20",
        "chainId": "0xaa36a7"
      },
      "additionalContracts": [],
      "isFixedGasLimit": false
    },
    {
      "hash": "0xe7d62f25896b624b5ae5729cf4f944e9cafa471af2986b1c6e1dbf667f27c488",
      "transactionType": "CALL",
      "contractName": "MockERC20",
      "contractAddress": "0x002307f602cc9f866ab59412dcf3f64177b29c51",
      "function": "approve(address,uint256)",
      "arguments": [
        "0xf13D190e9117920c703d79B5F33732e10049b115",
        "115792089237316195423570985008687907853269984665640564039457584007913129639935"
      ],
      "transaction": {
        "from": "0x4b992f2fbf714c0fcbb23bac5130ace48cad00cd",
        "to": "0x002307f602cc9f866ab59412dcf3f64177b29c51",
        "gas": "0xf977",
        "value": "0x0",
        "input": "0x095ea7b3000000000000000000000000f13d190e9117920c703d79b5f33732e10049b115ffffffffffffffffffffffffffffffffffffffffffffffffffffffffffffffff",
        "nonce": "0x21",
        "chainId": "0xaa36a7"
      },
      "additionalContracts": [],
      "isFixedGasLimit": false
    },
    {
      "hash": "0xfafe1feaacf3aa7b8e369eda403fd09e8d138c6d6563901427295075e8b00f0c",
      "transactionType": "CALL",
      "contractName": "MockERC20",
      "contractAddress": "0xf7d961d686ca264b20735d6e8685ebe603d8cffd",
      "function": "approve(address,uint256)",
      "arguments": [
        "0xf13D190e9117920c703d79B5F33732e10049b115",
        "115792089237316195423570985008687907853269984665640564039457584007913129639935"
      ],
      "transaction": {
        "from": "0x4b992f2fbf714c0fcbb23bac5130ace48cad00cd",
        "to": "0xf7d961d686ca264b20735d6e8685ebe603d8cffd",
        "gas": "0xf977",
        "value": "0x0",
        "input": "0x095ea7b3000000000000000000000000f13d190e9117920c703d79b5f33732e10049b115ffffffffffffffffffffffffffffffffffffffffffffffffffffffffffffffff",
        "nonce": "0x22",
        "chainId": "0xaa36a7"
      },
      "additionalContracts": [],
      "isFixedGasLimit": false
    },
    {
      "hash": "0xcc0ebdf1a508b48fb330fb3ca3662eadd1d2492245e35501cd9291aacfede712",
      "transactionType": "CALL",
      "contractName": null,
      "contractAddress": "0x000000000022d473030f116ddee9f6b43ac78ba3",
      "function": "approve(address,address,uint160,uint48)",
      "arguments": [
        "0x002307f602CC9F866ab59412Dcf3f64177b29C51",
        "0x429ba70129df741B2Ca2a85BC3A2a3328e5c09b4",
        "1461501637330902918203684832716283019655932542975",
        "281474976710655"
      ],
      "transaction": {
        "from": "0x4b992f2fbf714c0fcbb23bac5130ace48cad00cd",
        "to": "0x000000000022d473030f116ddee9f6b43ac78ba3",
        "gas": "0x101ee",
        "value": "0x0",
        "input": "0x87517c45000000000000000000000000002307f602cc9f866ab59412dcf3f64177b29c51000000000000000000000000429ba70129df741b2ca2a85bc3a2a3328e5c09b4000000000000000000000000ffffffffffffffffffffffffffffffffffffffff0000000000000000000000000000000000000000000000000000ffffffffffff",
        "nonce": "0x23",
        "chainId": "0xaa36a7"
      },
      "additionalContracts": [],
      "isFixedGasLimit": false
    },
    {
      "hash": "0x9e94be3081c0730a8771b5b296e82812529b05d556e42b3f3ae5633c2ef05800",
      "transactionType": "CALL",
      "contractName": null,
      "contractAddress": "0x000000000022d473030f116ddee9f6b43ac78ba3",
      "function": "approve(address,address,uint160,uint48)",
      "arguments": [
        "0xf7D961d686cA264B20735d6e8685EBE603d8CffD",
        "0x429ba70129df741B2Ca2a85BC3A2a3328e5c09b4",
        "1461501637330902918203684832716283019655932542975",
        "281474976710655"
      ],
      "transaction": {
        "from": "0x4b992f2fbf714c0fcbb23bac5130ace48cad00cd",
        "to": "0x000000000022d473030f116ddee9f6b43ac78ba3",
        "gas": "0x1112d",
        "value": "0x0",
        "input": "0x87517c45000000000000000000000000f7d961d686ca264b20735d6e8685ebe603d8cffd000000000000000000000000429ba70129df741b2ca2a85bc3a2a3328e5c09b4000000000000000000000000ffffffffffffffffffffffffffffffffffffffff0000000000000000000000000000000000000000000000000000ffffffffffff",
        "nonce": "0x24",
        "chainId": "0xaa36a7"
      },
      "additionalContracts": [],
      "isFixedGasLimit": false
    },
    {
      "hash": "0x4161bfb56719da1b1ef12628d4b55b9d322a9c6e5b7a7b801dad8dc181003f57",
      "transactionType": "CALL",
      "contractName": null,
      "contractAddress": "0x000000000022d473030f116ddee9f6b43ac78ba3",
      "function": "approve(address,address,uint160,uint48)",
      "arguments": [
        "0x002307f602CC9F866ab59412Dcf3f64177b29C51",
        "0xf13D190e9117920c703d79B5F33732e10049b115",
        "1461501637330902918203684832716283019655932542975",
        "281474976710655"
      ],
      "transaction": {
        "from": "0x4b992f2fbf714c0fcbb23bac5130ace48cad00cd",
        "to": "0x000000000022d473030f116ddee9f6b43ac78ba3",
        "gas": "0x1110a",
        "value": "0x0",
        "input": "0x87517c45000000000000000000000000002307f602cc9f866ab59412dcf3f64177b29c51000000000000000000000000f13d190e9117920c703d79b5f33732e10049b115000000000000000000000000ffffffffffffffffffffffffffffffffffffffff0000000000000000000000000000000000000000000000000000ffffffffffff",
        "nonce": "0x25",
        "chainId": "0xaa36a7"
      },
      "additionalContracts": [],
      "isFixedGasLimit": false
    },
    {
      "hash": "0xd9f5c72ed12453660a8b05d8fab35e70e8d11c8e757c70a10cea225643f769fa",
      "transactionType": "CALL",
      "contractName": null,
      "contractAddress": "0x000000000022d473030f116ddee9f6b43ac78ba3",
      "function": "approve(address,address,uint160,uint48)",
      "arguments": [
        "0xf7D961d686cA264B20735d6e8685EBE603d8CffD",
        "0xf13D190e9117920c703d79B5F33732e10049b115",
        "1461501637330902918203684832716283019655932542975",
        "281474976710655"
      ],
      "transaction": {
        "from": "0x4b992f2fbf714c0fcbb23bac5130ace48cad00cd",
        "to": "0x000000000022d473030f116ddee9f6b43ac78ba3",
        "gas": "0x101ee",
        "value": "0x0",
        "input": "0x87517c45000000000000000000000000f7d961d686ca264b20735d6e8685ebe603d8cffd000000000000000000000000f13d190e9117920c703d79b5f33732e10049b115000000000000000000000000ffffffffffffffffffffffffffffffffffffffff0000000000000000000000000000000000000000000000000000ffffffffffff",
        "nonce": "0x26",
        "chainId": "0xaa36a7"
      },
      "additionalContracts": [],
      "isFixedGasLimit": false
    },
    {
      "hash": "0x44dd52f66f71cf5b1b8b91bbacf33d911a32bd5af8225a73e7a7f99abdab8021",
      "transactionType": "CALL",
      "contractName": null,
      "contractAddress": "0x429ba70129df741b2ca2a85bc3a2a3328e5c09b4",
      "function": "initializePool((address,address,uint24,int24,address),uint160)",
      "arguments": [
        "(0x002307f602CC9F866ab59412Dcf3f64177b29C51, 0xf7D961d686cA264B20735d6e8685EBE603d8CffD, 8388608, 10, 0xbe98d00E9f9676F7195985d278b40F5A4610Da80)",
        "79228162514264337593543950336"
      ],
      "transaction": {
        "from": "0x4b992f2fbf714c0fcbb23bac5130ace48cad00cd",
        "to": "0x429ba70129df741b2ca2a85bc3a2a3328e5c09b4",
        "gas": "0x1c0c6",
        "value": "0x0",
        "input": "0xf7020405000000000000000000000000002307f602cc9f866ab59412dcf3f64177b29c51000000000000000000000000f7d961d686ca264b20735d6e8685ebe603d8cffd0000000000000000000000000000000000000000000000000000000000800000000000000000000000000000000000000000000000000000000000000000000a000000000000000000000000be98d00e9f9676f7195985d278b40f5a4610da800000000000000000000000000000000000000001000000000000000000000000",
        "nonce": "0x27",
        "chainId": "0xaa36a7"
      },
      "additionalContracts": [],
      "isFixedGasLimit": false
    },
    {
      "hash": "0x1d43df30bdea21c8950d571de481a76fb87844e940adbdc4efc6d2485e448d13",
      "transactionType": "CALL",
      "contractName": null,
      "contractAddress": "0xbe98d00e9f9676f7195985d278b40f5a4610da80",
      "function": "configurePool((address,address,uint24,int24,address),(bytes32,bytes32,uint24,uint24,uint24,uint256,uint256,uint256))",
      "arguments": [
        "(0x002307f602CC9F866ab59412Dcf3f64177b29C51, 0xf7D961d686cA264B20735d6e8685EBE603d8CffD, 8388608, 10, 0xbe98d00E9f9676F7195985d278b40F5A4610Da80)",
        "(0xff61491a931112ddf1bd8147cd1b641375f79f5825126d665480874634fd0ace, 0xeaa020c61cc479712813461ce153894a96a6c00b21ed0cfc2798d1f9a9e9c94a, 3000, 50000, 500, 0, 0, 0)"
      ],
      "transaction": {
        "from": "0x4b992f2fbf714c0fcbb23bac5130ace48cad00cd",
        "to": "0xbe98d00e9f9676f7195985d278b40f5a4610da80",
        "gas": "0x31dfd",
        "value": "0x0",
        "input": "0xf772b36d000000000000000000000000002307f602cc9f866ab59412dcf3f64177b29c51000000000000000000000000f7d961d686ca264b20735d6e8685ebe603d8cffd0000000000000000000000000000000000000000000000000000000000800000000000000000000000000000000000000000000000000000000000000000000a000000000000000000000000be98d00e9f9676f7195985d278b40f5a4610da80ff61491a931112ddf1bd8147cd1b641375f79f5825126d665480874634fd0aceeaa020c61cc479712813461ce153894a96a6c00b21ed0cfc2798d1f9a9e9c94a0000000000000000000000000000000000000000000000000000000000000bb8000000000000000000000000000000000000000000000000000000000000c35000000000000000000000000000000000000000000000000000000000000001f4000000000000000000000000000000000000000000000000000000000000000000000000000000000000000000000000000000000000000000000000000000000000000000000000000000000000000000000000000000000000000000000000",
        "nonce": "0x28",
        "chainId": "0xaa36a7"
      },
      "additionalContracts": [],
      "isFixedGasLimit": false
    },
    {
      "hash": "0x41bea927b36c6c7e5e957ef1ebdeb666e3b81e51eb51540f0b6954d9861fb478",
      "transactionType": "CALL",
      "contractName": null,
      "contractAddress": "0xbe98d00e9f9676f7195985d278b40f5a4610da80",
      "function": "setLiquidityPolicy((address,address,uint24,int24,address),bool)",
      "arguments": [
        "(0x002307f602CC9F866ab59412Dcf3f64177b29C51, 0xf7D961d686cA264B20735d6e8685EBE603d8CffD, 8388608, 10, 0xbe98d00E9f9676F7195985d278b40F5A4610Da80)",
        "true"
      ],
      "transaction": {
        "from": "0x4b992f2fbf714c0fcbb23bac5130ace48cad00cd",
        "to": "0xbe98d00e9f9676f7195985d278b40f5a4610da80",
        "gas": "0x21a41",
        "value": "0x0",
        "input": "0x9f8ea657000000000000000000000000002307f602cc9f866ab59412dcf3f64177b29c51000000000000000000000000f7d961d686ca264b20735d6e8685ebe603d8cffd0000000000000000000000000000000000000000000000000000000000800000000000000000000000000000000000000000000000000000000000000000000a000000000000000000000000be98d00e9f9676f7195985d278b40f5a4610da800000000000000000000000000000000000000000000000000000000000000001",
        "nonce": "0x29",
        "chainId": "0xaa36a7"
      },
      "additionalContracts": [],
      "isFixedGasLimit": false
    },
    {
      "hash": "0xe274603c1a08f332ea9a886d6e1f9111951e80d4945f6c373004f7921b2cb323",
      "transactionType": "CALL",
      "contractName": null,
      "contractAddress": "0xbe98d00e9f9676f7195985d278b40f5a4610da80",
      "function": "updateLiquidityAllowlist((address,address,uint24,int24,address),address,bool)",
      "arguments": [
        "(0x002307f602CC9F866ab59412Dcf3f64177b29C51, 0xf7D961d686cA264B20735d6e8685EBE603d8CffD, 8388608, 10, 0xbe98d00E9f9676F7195985d278b40F5A4610Da80)",
        "0x429ba70129df741B2Ca2a85BC3A2a3328e5c09b4",
        "true"
      ],
      "transaction": {
        "from": "0x4b992f2fbf714c0fcbb23bac5130ace48cad00cd",
        "to": "0xbe98d00e9f9676f7195985d278b40f5a4610da80",
        "gas": "0x10f54",
        "value": "0x0",
        "input": "0x48a429f9000000000000000000000000002307f602cc9f866ab59412dcf3f64177b29c51000000000000000000000000f7d961d686ca264b20735d6e8685ebe603d8cffd0000000000000000000000000000000000000000000000000000000000800000000000000000000000000000000000000000000000000000000000000000000a000000000000000000000000be98d00e9f9676f7195985d278b40f5a4610da80000000000000000000000000429ba70129df741b2ca2a85bc3a2a3328e5c09b40000000000000000000000000000000000000000000000000000000000000001",
        "nonce": "0x2a",
        "chainId": "0xaa36a7"
      },
      "additionalContracts": [],
      "isFixedGasLimit": false
    },
    {
      "hash": "0xf7b9711ab995dffe8bef5cc6c5fca41ba9c2adc2820027b8c3a978b7436b6317",
      "transactionType": "CALL",
      "contractName": null,
      "contractAddress": "0xbe98d00e9f9676f7195985d278b40f5a4610da80",
      "function": "updateLiquidityAllowlist((address,address,uint24,int24,address),address,bool)",
      "arguments": [
        "(0x002307f602CC9F866ab59412Dcf3f64177b29C51, 0xf7D961d686cA264B20735d6e8685EBE603d8CffD, 8388608, 10, 0xbe98d00E9f9676F7195985d278b40F5A4610Da80)",
        "0xf13D190e9117920c703d79B5F33732e10049b115",
        "true"
      ],
      "transaction": {
        "from": "0x4b992f2fbf714c0fcbb23bac5130ace48cad00cd",
        "to": "0xbe98d00e9f9676f7195985d278b40f5a4610da80",
        "gas": "0x10f43",
        "value": "0x0",
        "input": "0x48a429f9000000000000000000000000002307f602cc9f866ab59412dcf3f64177b29c51000000000000000000000000f7d961d686ca264b20735d6e8685ebe603d8cffd0000000000000000000000000000000000000000000000000000000000800000000000000000000000000000000000000000000000000000000000000000000a000000000000000000000000be98d00e9f9676f7195985d278b40f5a4610da80000000000000000000000000f13d190e9117920c703d79b5f33732e10049b1150000000000000000000000000000000000000000000000000000000000000001",
        "nonce": "0x2b",
        "chainId": "0xaa36a7"
      },
      "additionalContracts": [],
      "isFixedGasLimit": false
    },
    {
      "hash": "0xe8e8bc5ef534b2115cf63aef87d5a46879784da1bbe2f2806f134f81bfc95cae",
      "transactionType": "CALL",
      "contractName": null,
      "contractAddress": "0xbe98d00e9f9676f7195985d278b40f5a4610da80",
      "function": "updateLiquidityAllowlist((address,address,uint24,int24,address),address,bool)",
      "arguments": [
        "(0x002307f602CC9F866ab59412Dcf3f64177b29C51, 0xf7D961d686cA264B20735d6e8685EBE603d8CffD, 8388608, 10, 0xbe98d00E9f9676F7195985d278b40F5A4610Da80)",
        "0x4b992F2Fbf714C0fCBb23baC5130Ace48CaD00cd",
        "true"
      ],
      "transaction": {
        "from": "0x4b992f2fbf714c0fcbb23bac5130ace48cad00cd",
        "to": "0xbe98d00e9f9676f7195985d278b40f5a4610da80",
        "gas": "0x10f43",
        "value": "0x0",
        "input": "0x48a429f9000000000000000000000000002307f602cc9f866ab59412dcf3f64177b29c51000000000000000000000000f7d961d686ca264b20735d6e8685ebe603d8cffd0000000000000000000000000000000000000000000000000000000000800000000000000000000000000000000000000000000000000000000000000000000a000000000000000000000000be98d00e9f9676f7195985d278b40f5a4610da800000000000000000000000004b992f2fbf714c0fcbb23bac5130ace48cad00cd0000000000000000000000000000000000000000000000000000000000000001",
        "nonce": "0x2c",
        "chainId": "0xaa36a7"
      },
      "additionalContracts": [],
      "isFixedGasLimit": false
    },
    {
      "hash": "0x420e2fff140cf3252e07196b3339e9cc03ca626a49d1e3fb0af99869727460d2",
      "transactionType": "CALL",
      "contractName": null,
      "contractAddress": "0x9c93926bcef5af829fa2e9b096fabb87508350ae",
      "function": "setKeeperConfig((address,address,uint24,int24,address),(uint256,uint256,uint256,uint256,uint256))",
      "arguments": [
        "(0x002307f602CC9F866ab59412Dcf3f64177b29C51, 0xf7D961d686cA264B20735d6e8685EBE603d8CffD, 8388608, 10, 0xbe98d00E9f9676F7195985d278b40F5A4610Da80)",
        "(100, 300, 200, 300, 120)"
      ],
      "transaction": {
        "from": "0x4b992f2fbf714c0fcbb23bac5130ace48cad00cd",
        "to": "0x9c93926bcef5af829fa2e9b096fabb87508350ae",
        "gas": "0x31c4d",
        "value": "0x0",
        "input": "0x6f31470a000000000000000000000000002307f602cc9f866ab59412dcf3f64177b29c51000000000000000000000000f7d961d686ca264b20735d6e8685ebe603d8cffd0000000000000000000000000000000000000000000000000000000000800000000000000000000000000000000000000000000000000000000000000000000a000000000000000000000000be98d00e9f9676f7195985d278b40f5a4610da800000000000000000000000000000000000000000000000000000000000000064000000000000000000000000000000000000000000000000000000000000012c00000000000000000000000000000000000000000000000000000000000000c8000000000000000000000000000000000000000000000000000000000000012c0000000000000000000000000000000000000000000000000000000000000078",
        "nonce": "0x2d",
        "chainId": "0xaa36a7"
      },
      "additionalContracts": [],
      "isFixedGasLimit": false
    },
    {
      "hash": "0x977d5419a671b423afe5a4fdec1034f093d99732e01487a662c52917b4f67785",
      "transactionType": "CALL",
      "contractName": null,
      "contractAddress": "0x5e2dd3d96e81925e142d2f0de2916aa952bb598f",
      "function": "configurePool((address,address,uint24,int24,address),(int24,int24,uint64,uint256))",
      "arguments": [
        "(0x002307f602CC9F866ab59412Dcf3f64177b29C51, 0xf7D961d686cA264B20735d6e8685EBE603d8CffD, 8388608, 10, 0xbe98d00E9f9676F7195985d278b40F5A4610Da80)",
        "(-100, 100, 60, 500)"
      ],
      "transaction": {
        "from": "0x4b992f2fbf714c0fcbb23bac5130ace48cad00cd",
        "to": "0x5e2dd3d96e81925e142d2f0de2916aa952bb598f",
        "gas": "0x18d92",
        "value": "0x0",
        "input": "0xd6388983000000000000000000000000002307f602cc9f866ab59412dcf3f64177b29c51000000000000000000000000f7d961d686ca264b20735d6e8685ebe603d8cffd0000000000000000000000000000000000000000000000000000000000800000000000000000000000000000000000000000000000000000000000000000000a000000000000000000000000be98d00e9f9676f7195985d278b40f5a4610da80ffffffffffffffffffffffffffffffffffffffffffffffffffffffffffffff9c0000000000000000000000000000000000000000000000000000000000000064000000000000000000000000000000000000000000000000000000000000003c00000000000000000000000000000000000000000000000000000000000001f4",
        "nonce": "0x2e",
        "chainId": "0xaa36a7"
      },
      "additionalContracts": [],
      "isFixedGasLimit": false
    },
    {
      "hash": "0x56880839ba60b4533f8c97e66085bff38753a51ebbfcc4a0de0ac8b164acbf0d",
      "transactionType": "CALL",
      "contractName": null,
      "contractAddress": "0xbe98d00e9f9676f7195985d278b40f5a4610da80",
      "function": "setTargetRange((address,address,uint24,int24,address),int24,int24)",
      "arguments": [
        "(0x002307f602CC9F866ab59412Dcf3f64177b29C51, 0xf7D961d686cA264B20735d6e8685EBE603d8CffD, 8388608, 10, 0xbe98d00E9f9676F7195985d278b40F5A4610Da80)",
        "-100",
        "100"
      ],
      "transaction": {
        "from": "0x4b992f2fbf714c0fcbb23bac5130ace48cad00cd",
        "to": "0xbe98d00e9f9676f7195985d278b40f5a4610da80",
        "gas": "0xc982",
        "value": "0x0",
        "input": "0x9be1caba000000000000000000000000002307f602cc9f866ab59412dcf3f64177b29c51000000000000000000000000f7d961d686ca264b20735d6e8685ebe603d8cffd0000000000000000000000000000000000000000000000000000000000800000000000000000000000000000000000000000000000000000000000000000000a000000000000000000000000be98d00e9f9676f7195985d278b40f5a4610da80ffffffffffffffffffffffffffffffffffffffffffffffffffffffffffffff9c0000000000000000000000000000000000000000000000000000000000000064",
        "nonce": "0x2f",
        "chainId": "0xaa36a7"
      },
      "additionalContracts": [],
      "isFixedGasLimit": false
    },
    {
      "hash": "0x00e8a77daa4b99609e7200d16586180cdd4d30da48f3f78bc9f62094bd1c1b41",
      "transactionType": "CALL",
      "contractName": null,
      "contractAddress": "0x429ba70129df741b2ca2a85bc3a2a3328e5c09b4",
      "function": "modifyLiquidities(bytes,uint256)",
      "arguments": [
        "0x000000000000000000000000000000000000000000000000000000000000004000000000000000000000000000000000000000000000000000000000000000800000000000000000000000000000000000000000000000000000000000000004020d14140000000000000000000000000000000000000000000000000000000000000000000000000000000000000000000000000000000000000000000000040000000000000000000000000000000000000000000000000000000000000080000000000000000000000000000000000000000000000000000000000000024000000000000000000000000000000000000000000000000000000000000002a0000000000000000000000000000000000000000000000000000000000000030000000000000000000000000000000000000000000000000000000000000001a0000000000000000000000000002307f602cc9f866ab59412dcf3f64177b29c51000000000000000000000000f7d961d686ca264b20735d6e8685ebe603d8cffd0000000000000000000000000000000000000000000000000000000000800000000000000000000000000000000000000000000000000000000000000000000a000000000000000000000000be98d00e9f9676f7195985d278b40f5a4610da80fffffffffffffffffffffffffffffffffffffffffffffffffffffffffffffda8000000000000000000000000000000000000000000000000000000000000025800000000000000000000000000000000000000000000000000000189eb9b99960000000000000000000000000000000000000000000000000000000ba43b74000000000000000000000000000000000000000000000000015af1d78b58c400000000000000000000000000004b992f2fbf714c0fcbb23bac5130ace48cad00cd000000000000000000000000000000000000000000000000000000000000018000000000000000000000000000000000000000000000000000000000000000000000000000000000000000000000000000000000000000000000000000000040000000000000000000000000002307f602cc9f866ab59412dcf3f64177b29c51000000000000000000000000f7d961d686ca264b20735d6e8685ebe603d8cffd0000000000000000000000000000000000000000000000000000000000000040000000000000000000000000002307f602cc9f866ab59412dcf3f64177b29c510000000000000000000000004b992f2fbf714c0fcbb23bac5130ace48cad00cd0000000000000000000000000000000000000000000000000000000000000040000000000000000000000000f7d961d686ca264b20735d6e8685ebe603d8cffd0000000000000000000000004b992f2fbf714c0fcbb23bac5130ace48cad00cd",
        "1763899860"
      ],
      "transaction": {
        "from": "0x4b992f2fbf714c0fcbb23bac5130ace48cad00cd",
        "to": "0x429ba70129df741b2ca2a85bc3a2a3328e5c09b4",
        "gas": "0x9d0e7",
        "value": "0x0",
        "input": "0xdd46508f0000000000000000000000000000000000000000000000000000000000000040000000000000000000000000000000000000000000000000000000006922f9d40000000000000000000000000000000000000000000000000000000000000400000000000000000000000000000000000000000000000000000000000000004000000000000000000000000000000000000000000000000000000000000000800000000000000000000000000000000000000000000000000000000000000004020d14140000000000000000000000000000000000000000000000000000000000000000000000000000000000000000000000000000000000000000000000040000000000000000000000000000000000000000000000000000000000000080000000000000000000000000000000000000000000000000000000000000024000000000000000000000000000000000000000000000000000000000000002a0000000000000000000000000000000000000000000000000000000000000030000000000000000000000000000000000000000000000000000000000000001a0000000000000000000000000002307f602cc9f866ab59412dcf3f64177b29c51000000000000000000000000f7d961d686ca264b20735d6e8685ebe603d8cffd0000000000000000000000000000000000000000000000000000000000800000000000000000000000000000000000000000000000000000000000000000000a000000000000000000000000be98d00e9f9676f7195985d278b40f5a4610da80fffffffffffffffffffffffffffffffffffffffffffffffffffffffffffffda8000000000000000000000000000000000000000000000000000000000000025800000000000000000000000000000000000000000000000000000189eb9b99960000000000000000000000000000000000000000000000000000000ba43b74000000000000000000000000000000000000000000000000015af1d78b58c400000000000000000000000000004b992f2fbf714c0fcbb23bac5130ace48cad00cd000000000000000000000000000000000000000000000000000000000000018000000000000000000000000000000000000000000000000000000000000000000000000000000000000000000000000000000000000000000000000000000040000000000000000000000000002307f602cc9f866ab59412dcf3f64177b29c51000000000000000000000000f7d961d686ca264b20735d6e8685ebe603d8cffd0000000000000000000000000000000000000000000000000000000000000040000000000000000000000000002307f602cc9f866ab59412dcf3f64177b29c510000000000000000000000004b992f2fbf714c0fcbb23bac5130ace48cad00cd0000000000000000000000000000000000000000000000000000000000000040000000000000000000000000f7d961d686ca264b20735d6e8685ebe603d8cffd0000000000000000000000004b992f2fbf714c0fcbb23bac5130ace48cad00cd",
        "nonce": "0x30",
        "chainId": "0xaa36a7"
      },
      "additionalContracts": [],
      "isFixedGasLimit": false
    },
    {
      "hash": "0x7a1b27e005179bf178f44c962c90bfc8f5cb3520042a68c13bada33628506eac",
      "transactionType": "CALL",
      "contractName": null,
      "contractAddress": "0xf13d190e9117920c703d79b5f33732e10049b115",
      "function": "swapExactTokensForTokens(uint256,uint256,bool,(address,address,uint24,int24,address),bytes,address,uint256)",
      "arguments": [
        "10000000000",
        "0",
        "true",
        "(0x002307f602CC9F866ab59412Dcf3f64177b29C51, 0xf7D961d686cA264B20735d6e8685EBE603d8CffD, 8388608, 10, 0xbe98d00E9f9676F7195985d278b40F5A4610Da80)",
        "0x",
        "0x4b992F2Fbf714C0fCBb23baC5130Ace48CaD00cd",
        "1763896560"
      ],
      "transaction": {
        "from": "0x4b992f2fbf714c0fcbb23bac5130ace48cad00cd",
        "to": "0xf13d190e9117920c703d79b5f33732e10049b115",
        "gas": "0x3d25b",
        "value": "0x0",
        "input": "0xb1a0d57100000000000000000000000000000000000000000000000000000002540be40000000000000000000000000000000000000000000000000000000000000000000000000000000000000000000000000000000000000000000000000000000001000000000000000000000000002307f602cc9f866ab59412dcf3f64177b29c51000000000000000000000000f7d961d686ca264b20735d6e8685ebe603d8cffd0000000000000000000000000000000000000000000000000000000000800000000000000000000000000000000000000000000000000000000000000000000a000000000000000000000000be98d00e9f9676f7195985d278b40f5a4610da8000000000000000000000000000000000000000000000000000000000000001600000000000000000000000004b992f2fbf714c0fcbb23bac5130ace48cad00cd000000000000000000000000000000000000000000000000000000006922ecf00000000000000000000000000000000000000000000000000000000000000000",
        "nonce": "0x31",
        "chainId": "0xaa36a7"
      },
      "additionalContracts": [],
      "isFixedGasLimit": false
    },
    {
      "hash": "0x4864c460dd87e82db50cee85f2fab35d788c29ec326d132ef30a284a7e864990",
      "transactionType": "CALL",
      "contractName": null,
      "contractAddress": "0x9c93926bcef5af829fa2e9b096fabb87508350ae",
      "function": "evaluateAndUpdate((address,address,uint24,int24,address))",
      "arguments": [
        "(0x002307f602CC9F866ab59412Dcf3f64177b29C51, 0xf7D961d686cA264B20735d6e8685EBE603d8CffD, 8388608, 10, 0xbe98d00E9f9676F7195985d278b40F5A4610Da80)"
      ],
      "transaction": {
        "from": "0x4b992f2fbf714c0fcbb23bac5130ace48cad00cd",
        "to": "0x9c93926bcef5af829fa2e9b096fabb87508350ae",
        "gas": "0x1c08f",
        "value": "0x0",
        "input": "0x18f72b2b000000000000000000000000002307f602cc9f866ab59412dcf3f64177b29c51000000000000000000000000f7d961d686ca264b20735d6e8685ebe603d8cffd0000000000000000000000000000000000000000000000000000000000800000000000000000000000000000000000000000000000000000000000000000000a000000000000000000000000be98d00e9f9676f7195985d278b40f5a4610da80",
        "nonce": "0x32",
        "chainId": "0xaa36a7"
      },
      "additionalContracts": [],
      "isFixedGasLimit": false
    }
  ],
  "receipts": [
    {
      "status": "0x1",
      "cumulativeGasUsed": "0x705d9c",
      "logs": [],
      "logsBloom": "0x00000000000000000000000000000000000000000000000000000000000000000000000000000000000000000000000000000000000000000000000000000000000000000000000000000000000000000000000000000000000000000000000000000000000000000000000000000000000000000000000000000000000000000000000000000000000000000000000000000000000000000000000000000000000000000000000000000000000000000000000000000000000000000000000000000000000000000000000000000000000000000000000000000000000000000000000000000000000000000000000000000000000000000000000000000000",
      "type": "0x2",
      "transactionHash": "0x9e7bcc2772e70cf84ad031884616556ed5920595383605a8cd2a7f911c1215ee",
      "transactionIndex": "0x2c",
      "blockHash": "0x7ba6d615ec519e4defb4ae5af9a674daf6596e83dceeffbe5b6b0d7156129cfd",
      "blockNumber": "0x93d92b",
      "gasUsed": "0xab270",
      "effectiveGasPrice": "0xf424a",
      "from": "0x4b992f2fbf714c0fcbb23bac5130ace48cad00cd",
      "to": null,
      "contractAddress": "0x002307f602cc9f866ab59412dcf3f64177b29c51"
    },
    {
      "status": "0x1",
      "cumulativeGasUsed": "0x7b100c",
      "logs": [],
      "logsBloom": "0x00000000000000000000000000000000000000000000000000000000000000000000000000000000000000000000000000000000000000000000000000000000000000000000000000000000000000000000000000000000000000000000000000000000000000000000000000000000000000000000000000000000000000000000000000000000000000000000000000000000000000000000000000000000000000000000000000000000000000000000000000000000000000000000000000000000000000000000000000000000000000000000000000000000000000000000000000000000000000000000000000000000000000000000000000000000",
      "type": "0x2",
      "transactionHash": "0xd70c32bb3bcc90de9fdbb30c1ce8fdf14806e55598e1ff614859cfd7b9360ce1",
      "transactionIndex": "0x2d",
      "blockHash": "0x7ba6d615ec519e4defb4ae5af9a674daf6596e83dceeffbe5b6b0d7156129cfd",
      "blockNumber": "0x93d92b",
      "gasUsed": "0xab270",
      "effectiveGasPrice": "0xf424a",
      "from": "0x4b992f2fbf714c0fcbb23bac5130ace48cad00cd",
      "to": null,
      "contractAddress": "0xf7d961d686ca264b20735d6e8685ebe603d8cffd"
    },
    {
      "status": "0x1",
      "cumulativeGasUsed": "0x99c02a",
      "logs": [
        {
          "address": "0x002307f602cc9f866ab59412dcf3f64177b29c51",
          "topics": [
            "0xddf252ad1be2c89b69c2b068fc378daa952ba7f163c4a11628f55a4df523b3ef",
            "0x0000000000000000000000000000000000000000000000000000000000000000",
            "0x0000000000000000000000004b992f2fbf714c0fcbb23bac5130ace48cad00cd"
          ],
          "data": "0x000000000000000000000000000000000000000000000000000000e8d4a51000",
          "blockHash": "0x7ba6d615ec519e4defb4ae5af9a674daf6596e83dceeffbe5b6b0d7156129cfd",
          "blockNumber": "0x93d92b",
          "blockTimestamp": "0x6922ebf4",
          "transactionHash": "0x39a236eeb6153b3f49e7d30cee26c46a234e9d262361d56706214abf3d2b35b7",
          "transactionIndex": "0x3a",
          "logIndex": "0x95",
          "removed": false
        }
      ],
      "logsBloom": "0x00000000000000000000000000000000000000000000000000000000000000000000000000000000000000000000000000000002000000000000000000000000000000000000000000000008000000000000000000000000000100000000000000000000020000000000000000020800000000000000000000000010000000000000820000000000000000000000000000000000000000000000000000000000000000000000000000000000000000000000000000000000000000000000000000000002000000080000000000000000000000000000000000000000000020000000000000000000000000000000000000000000000000000000000000000000",
      "type": "0x2",
      "transactionHash": "0x39a236eeb6153b3f49e7d30cee26c46a234e9d262361d56706214abf3d2b35b7",
      "transactionIndex": "0x3a",
      "blockHash": "0x7ba6d615ec519e4defb4ae5af9a674daf6596e83dceeffbe5b6b0d7156129cfd",
      "blockNumber": "0x93d92b",
      "gasUsed": "0x109fb",
      "effectiveGasPrice": "0xf424a",
      "from": "0x4b992f2fbf714c0fcbb23bac5130ace48cad00cd",
      "to": "0x002307f602cc9f866ab59412dcf3f64177b29c51",
      "contractAddress": null
    },
    {
      "status": "0x1",
      "cumulativeGasUsed": "0x9aca49",
      "logs": [
        {
          "address": "0xf7d961d686ca264b20735d6e8685ebe603d8cffd",
          "topics": [
            "0xddf252ad1be2c89b69c2b068fc378daa952ba7f163c4a11628f55a4df523b3ef",
            "0x0000000000000000000000000000000000000000000000000000000000000000",
            "0x0000000000000000000000004b992f2fbf714c0fcbb23bac5130ace48cad00cd"
          ],
          "data": "0x00000000000000000000000000000000000000000000003635c9adc5dea00000",
          "blockHash": "0x7ba6d615ec519e4defb4ae5af9a674daf6596e83dceeffbe5b6b0d7156129cfd",
          "blockNumber": "0x93d92b",
          "blockTimestamp": "0x6922ebf4",
          "transactionHash": "0x449bbac0deba0b695d53c9b3e452116eb46a7c7bb472b4470d785343cfe975ab",
          "transactionIndex": "0x3b",
          "logIndex": "0x96",
          "removed": false
        }
      ],
      "logsBloom": "0x00000000000000000000000000000000000000000000000000000000000000000000000000000000000000000000000000000002000000000000000000000000000000000000000000000008000000000000000000000000000100000000000000000000020000000000000000120800000000000000000000000010000000000000100000000000000000000000000000000000000000000000000000000000000000000000000000000000000000000000000000000000000000000000000000000002000000000000000000000000000000000000000000000000000020000000000000000000000000000000000002000000000000000000000000000000",
      "type": "0x2",
      "transactionHash": "0x449bbac0deba0b695d53c9b3e452116eb46a7c7bb472b4470d785343cfe975ab",
      "transactionIndex": "0x3b",
      "blockHash": "0x7ba6d615ec519e4defb4ae5af9a674daf6596e83dceeffbe5b6b0d7156129cfd",
      "blockNumber": "0x93d92b",
      "gasUsed": "0x10a1f",
      "effectiveGasPrice": "0xf424a",
      "from": "0x4b992f2fbf714c0fcbb23bac5130ace48cad00cd",
      "to": "0xf7d961d686ca264b20735d6e8685ebe603d8cffd",
      "contractAddress": null
    },
    {
      "status": "0x1",
      "cumulativeGasUsed": "0xa8650e",
      "logs": [
        {
          "address": "0x002307f602cc9f866ab59412dcf3f64177b29c51",
          "topics": [
            "0x8c5be1e5ebec7d5bd14f71427d1e84f3dd0314c0f7b2291e5b200ac8c7c3b925",
            "0x0000000000000000000000004b992f2fbf714c0fcbb23bac5130ace48cad00cd",
            "0x000000000000000000000000000000000022d473030f116ddee9f6b43ac78ba3"
          ],
          "data": "0xffffffffffffffffffffffffffffffffffffffffffffffffffffffffffffffff",
          "blockHash": "0x7ba6d615ec519e4defb4ae5af9a674daf6596e83dceeffbe5b6b0d7156129cfd",
          "blockNumber": "0x93d92b",
          "blockTimestamp": "0x6922ebf4",
          "transactionHash": "0xd0d724d39cde0761f948c14c3b1c11530b5b261f82b341059d034ebf17419bb8",
          "transactionIndex": "0x4d",
          "logIndex": "0xa7",
          "removed": false
        }
      ],
      "logsBloom": "0x00000000000000000000000000000000000000000000000000000000000000000000000000000000000000000000000000000002800000000000000000200000000000000000000000004000000000000000000000000800000100000000000000000000000000000000000000020000000000000000000000000000000000000000820000000000000000000000000000000000000000000000000000000000020000000000000000000000000000000000000000000000000000000000000000000000000000080000000000000000000000000000000000000000000000000010000000000000000000000000000000000000000000000000000000000000",
      "type": "0x2",
      "transactionHash": "0xd0d724d39cde0761f948c14c3b1c11530b5b261f82b341059d034ebf17419bb8",
      "transactionIndex": "0x4d",
      "blockHash": "0x7ba6d615ec519e4defb4ae5af9a674daf6596e83dceeffbe5b6b0d7156129cfd",
      "blockNumber": "0x93d92b",
      "gasUsed": "0xb46d",
      "effectiveGasPrice": "0xf424a",
      "from": "0x4b992f2fbf714c0fcbb23bac5130ace48cad00cd",
      "to": "0x002307f602cc9f866ab59412dcf3f64177b29c51",
      "contractAddress": null
    },
    {
      "status": "0x1",
      "cumulativeGasUsed": "0xa9197b",
      "logs": [
        {
          "address": "0xf7d961d686ca264b20735d6e8685ebe603d8cffd",
          "topics": [
            "0x8c5be1e5ebec7d5bd14f71427d1e84f3dd0314c0f7b2291e5b200ac8c7c3b925",
            "0x0000000000000000000000004b992f2fbf714c0fcbb23bac5130ace48cad00cd",
            "0x000000000000000000000000000000000022d473030f116ddee9f6b43ac78ba3"
          ],
          "data": "0xffffffffffffffffffffffffffffffffffffffffffffffffffffffffffffffff",
          "blockHash": "0x7ba6d615ec519e4defb4ae5af9a674daf6596e83dceeffbe5b6b0d7156129cfd",
          "blockNumber": "0x93d92b",
          "blockTimestamp": "0x6922ebf4",
          "transactionHash": "0xe873fd3b71aafe837c6666fbbf41b5cfd27bfb81888d90e0707f13387f875da9",
          "transactionIndex": "0x4e",
          "logIndex": "0xa8",
          "removed": false
        }
      ],
      "logsBloom": "0x00000000000000000000000000000000000000000000000000000000000000000000000000000000000000000000000000000002800000000000000000200000000000000000000000004000000000000000000000000800000100000000000000000000000000000000000000120000000000000000000000000000000000000000100000000000000000000000000000000000000000000000000000000000020000000000000000000000000000000000000000000000000000000000000000000000000000000000000000000000000000000000000000000000000000000010000000000000000000000000000002000000000000000000000000000000",
      "type": "0x2",
      "transactionHash": "0xe873fd3b71aafe837c6666fbbf41b5cfd27bfb81888d90e0707f13387f875da9",
      "transactionIndex": "0x4e",
      "blockHash": "0x7ba6d615ec519e4defb4ae5af9a674daf6596e83dceeffbe5b6b0d7156129cfd",
      "blockNumber": "0x93d92b",
      "gasUsed": "0xb46d",
      "effectiveGasPrice": "0xf424a",
      "from": "0x4b992f2fbf714c0fcbb23bac5130ace48cad00cd",
      "to": "0xf7d961d686ca264b20735d6e8685ebe603d8cffd",
      "contractAddress": null
    },
    {
      "status": "0x1",
      "cumulativeGasUsed": "0xa9ce24",
      "logs": [
        {
          "address": "0x002307f602cc9f866ab59412dcf3f64177b29c51",
          "topics": [
            "0x8c5be1e5ebec7d5bd14f71427d1e84f3dd0314c0f7b2291e5b200ac8c7c3b925",
            "0x0000000000000000000000004b992f2fbf714c0fcbb23bac5130ace48cad00cd",
            "0x000000000000000000000000429ba70129df741b2ca2a85bc3a2a3328e5c09b4"
          ],
          "data": "0xffffffffffffffffffffffffffffffffffffffffffffffffffffffffffffffff",
          "blockHash": "0x7ba6d615ec519e4defb4ae5af9a674daf6596e83dceeffbe5b6b0d7156129cfd",
          "blockNumber": "0x93d92b",
          "blockTimestamp": "0x6922ebf4",
          "transactionHash": "0x53c364540e891744b170ab6275bbecc1519c9fcfc141afd743b6315f00c7c0af",
          "transactionIndex": "0x4f",
          "logIndex": "0xa9",
          "removed": false
        }
      ],
      "logsBloom": "0x00000000000000000000000000000000000000000000000000000000000000000000000000000040080000000000000000000002000000000000000000200000000000000000000000000000000000000000000000000000000100000000000000000000000000000000000000020000000000000000000000000800000000000000820000000000000000000000000000000000000000000000000000000000020000000000000000000000000000000000000000000000000000000000000000000000000000080000000000000000000000000000000000000000000000000010000000000000000000000000000000000000000000000000000000000000",
      "type": "0x2",
      "transactionHash": "0x53c364540e891744b170ab6275bbecc1519c9fcfc141afd743b6315f00c7c0af",
      "transactionIndex": "0x4f",
      "blockHash": "0x7ba6d615ec519e4defb4ae5af9a674daf6596e83dceeffbe5b6b0d7156129cfd",
      "blockNumber": "0x93d92b",
      "gasUsed": "0xb4a9",
      "effectiveGasPrice": "0xf424a",
      "from": "0x4b992f2fbf714c0fcbb23bac5130ace48cad00cd",
      "to": "0x002307f602cc9f866ab59412dcf3f64177b29c51",
      "contractAddress": null
    },
    {
      "status": "0x1",
      "cumulativeGasUsed": "0xaa82cd",
      "logs": [
        {
          "address": "0xf7d961d686ca264b20735d6e8685ebe603d8cffd",
          "topics": [
            "0x8c5be1e5ebec7d5bd14f71427d1e84f3dd0314c0f7b2291e5b200ac8c7c3b925",
            "0x0000000000000000000000004b992f2fbf714c0fcbb23bac5130ace48cad00cd",
            "0x000000000000000000000000429ba70129df741b2ca2a85bc3a2a3328e5c09b4"
          ],
          "data": "0xffffffffffffffffffffffffffffffffffffffffffffffffffffffffffffffff",
          "blockHash": "0x7ba6d615ec519e4defb4ae5af9a674daf6596e83dceeffbe5b6b0d7156129cfd",
          "blockNumber": "0x93d92b",
          "blockTimestamp": "0x6922ebf4",
          "transactionHash": "0x3b4b0217196441162a65dc1cbb32fc96e60973d0076031577600efaf905fd981",
          "transactionIndex": "0x50",
          "logIndex": "0xaa",
          "removed": false
        }
      ],
      "logsBloom": "0x00000000000000000000000000000000000000000000000000000000000000000000000000000040080000000000000000000002000000000000000000200000000000000000000000000000000000000000000000000000000100000000000000000000000000000000000000120000000000000000000000000800000000000000100000000000000000000000000000000000000000000000000000000000020000000000000000000000000000000000000000000000000000000000000000000000000000000000000000000000000000000000000000000000000000000010000000000000000000000000000002000000000000000000000000000000",
      "type": "0x2",
      "transactionHash": "0x3b4b0217196441162a65dc1cbb32fc96e60973d0076031577600efaf905fd981",
      "transactionIndex": "0x50",
      "blockHash": "0x7ba6d615ec519e4defb4ae5af9a674daf6596e83dceeffbe5b6b0d7156129cfd",
      "blockNumber": "0x93d92b",
      "gasUsed": "0xb4a9",
      "effectiveGasPrice": "0xf424a",
      "from": "0x4b992f2fbf714c0fcbb23bac5130ace48cad00cd",
      "to": "0xf7d961d686ca264b20735d6e8685ebe603d8cffd",
      "contractAddress": null
    },
    {
      "status": "0x1",
      "cumulativeGasUsed": "0xab376a",
      "logs": [
        {
          "address": "0x002307f602cc9f866ab59412dcf3f64177b29c51",
          "topics": [
            "0x8c5be1e5ebec7d5bd14f71427d1e84f3dd0314c0f7b2291e5b200ac8c7c3b925",
            "0x0000000000000000000000004b992f2fbf714c0fcbb23bac5130ace48cad00cd",
            "0x000000000000000000000000f13d190e9117920c703d79b5f33732e10049b115"
          ],
          "data": "0xffffffffffffffffffffffffffffffffffffffffffffffffffffffffffffffff",
          "blockHash": "0x7ba6d615ec519e4defb4ae5af9a674daf6596e83dceeffbe5b6b0d7156129cfd",
          "blockNumber": "0x93d92b",
          "blockTimestamp": "0x6922ebf4",
          "transactionHash": "0xe7d62f25896b624b5ae5729cf4f944e9cafa471af2986b1c6e1dbf667f27c488",
          "transactionIndex": "0x51",
          "logIndex": "0xab",
          "removed": false
        }
      ],
      "logsBloom": "0x00000000000000000000000000000000000000000000000000800000000000000000000000000000000000000000000000000002000000000000000000200000000000000000000000000000000000000000000000000000000100000000000000000000000000000000000000020000000000000000000000000000000000000000820000080000000000000000000000000000000000000000000000000000020000000000000000000000000000000000000000000000000000000000000000000000000000080000000000000000000000000000000000000000000080000010000000000000000000000000000000000000000000000000000000000000",
      "type": "0x2",
      "transactionHash": "0xe7d62f25896b624b5ae5729cf4f944e9cafa471af2986b1c6e1dbf667f27c488",
      "transactionIndex": "0x51",
      "blockHash": "0x7ba6d615ec519e4defb4ae5af9a674daf6596e83dceeffbe5b6b0d7156129cfd",
      "blockNumber": "0x93d92b",
      "gasUsed": "0xb49d",
      "effectiveGasPrice": "0xf424a",
      "from": "0x4b992f2fbf714c0fcbb23bac5130ace48cad00cd",
      "to": "0x002307f602cc9f866ab59412dcf3f64177b29c51",
      "contractAddress": null
    },
    {
      "status": "0x1",
      "cumulativeGasUsed": "0xabec07",
      "logs": [
        {
          "address": "0xf7d961d686ca264b20735d6e8685ebe603d8cffd",
          "topics": [
            "0x8c5be1e5ebec7d5bd14f71427d1e84f3dd0314c0f7b2291e5b200ac8c7c3b925",
            "0x0000000000000000000000004b992f2fbf714c0fcbb23bac5130ace48cad00cd",
            "0x000000000000000000000000f13d190e9117920c703d79b5f33732e10049b115"
          ],
          "data": "0xffffffffffffffffffffffffffffffffffffffffffffffffffffffffffffffff",
          "blockHash": "0x7ba6d615ec519e4defb4ae5af9a674daf6596e83dceeffbe5b6b0d7156129cfd",
          "blockNumber": "0x93d92b",
          "blockTimestamp": "0x6922ebf4",
          "transactionHash": "0xfafe1feaacf3aa7b8e369eda403fd09e8d138c6d6563901427295075e8b00f0c",
          "transactionIndex": "0x52",
          "logIndex": "0xac",
          "removed": false
        }
      ],
      "logsBloom": "0x00000000000000000000000000000000000000000000000000800000000000000000000000000000000000000000000000000002000000000000000000200000000000000000000000000000000000000000000000000000000100000000000000000000000000000000000000120000000000000000000000000000000000000000100000080000000000000000000000000000000000000000000000000000020000000000000000000000000000000000000000000000000000000000000000000000000000000000000000000000000000000000000000000000000080000010000000000000000000000000000002000000000000000000000000000000",
      "type": "0x2",
      "transactionHash": "0xfafe1feaacf3aa7b8e369eda403fd09e8d138c6d6563901427295075e8b00f0c",
      "transactionIndex": "0x52",
      "blockHash": "0x7ba6d615ec519e4defb4ae5af9a674daf6596e83dceeffbe5b6b0d7156129cfd",
      "blockNumber": "0x93d92b",
      "gasUsed": "0xb49d",
      "effectiveGasPrice": "0xf424a",
      "from": "0x4b992f2fbf714c0fcbb23bac5130ace48cad00cd",
      "to": "0xf7d961d686ca264b20735d6e8685ebe603d8cffd",
      "contractAddress": null
    },
    {
      "status": "0x1",
      "cumulativeGasUsed": "0xaca6c5",
      "logs": [
        {
          "address": "0x000000000022d473030f116ddee9f6b43ac78ba3",
          "topics": [
            "0xda9fa7c1b00402c17d0161b249b1ab8bbec047c5a52207b9c112deffd817036b",
            "0x0000000000000000000000004b992f2fbf714c0fcbb23bac5130ace48cad00cd",
            "0x000000000000000000000000002307f602cc9f866ab59412dcf3f64177b29c51",
            "0x000000000000000000000000429ba70129df741b2ca2a85bc3a2a3328e5c09b4"
          ],
          "data": "0x000000000000000000000000ffffffffffffffffffffffffffffffffffffffff0000000000000000000000000000000000000000000000000000ffffffffffff",
          "blockHash": "0x7ba6d615ec519e4defb4ae5af9a674daf6596e83dceeffbe5b6b0d7156129cfd",
          "blockNumber": "0x93d92b",
          "blockTimestamp": "0x6922ebf4",
          "transactionHash": "0xcc0ebdf1a508b48fb330fb3ca3662eadd1d2492245e35501cd9291aacfede712",
          "transactionIndex": "0x53",
          "logIndex": "0xad",
          "removed": false
        }
      ],
      "logsBloom": "0x00010000000000000000000000000000000000000000000000000000200000000000000000000040080000000000000000000002000000000000000000080000000000000000000000000000000000000000000000000000000100000000000000000000000800000000000000020000000000000000000000000800000000000020000001000000000000000000000000000000000000000000000000000000000000000000000000000000000000000000000000000000000000080000000000000000000000000000000000000000000000000000000040000000000000000000000000000000000000000000000000000000000000000000000000000400",
      "type": "0x2",
      "transactionHash": "0xcc0ebdf1a508b48fb330fb3ca3662eadd1d2492245e35501cd9291aacfede712",
      "transactionIndex": "0x53",
      "blockHash": "0x7ba6d615ec519e4defb4ae5af9a674daf6596e83dceeffbe5b6b0d7156129cfd",
      "blockNumber": "0x93d92b",
      "gasUsed": "0xbabe",
      "effectiveGasPrice": "0xf424a",
      "from": "0x4b992f2fbf714c0fcbb23bac5130ace48cad00cd",
      "to": "0x000000000022d473030f116ddee9f6b43ac78ba3",
      "contractAddress": null
    },
    {
      "status": "0x1",
      "cumulativeGasUsed": "0xad618f",
      "logs": [
        {
          "address": "0x000000000022d473030f116ddee9f6b43ac78ba3",
          "topics": [
            "0xda9fa7c1b00402c17d0161b249b1ab8bbec047c5a52207b9c112deffd817036b",
            "0x0000000000000000000000004b992f2fbf714c0fcbb23bac5130ace48cad00cd",
            "0x000000000000000000000000f7d961d686ca264b20735d6e8685ebe603d8cffd",
            "0x000000000000000000000000429ba70129df741b2ca2a85bc3a2a3328e5c09b4"
          ],
          "data": "0x000000000000000000000000ffffffffffffffffffffffffffffffffffffffff0000000000000000000000000000000000000000000000000000ffffffffffff",
          "blockHash": "0x7ba6d615ec519e4defb4ae5af9a674daf6596e83dceeffbe5b6b0d7156129cfd",
          "blockNumber": "0x93d92b",
          "blockTimestamp": "0x6922ebf4",
          "transactionHash": "0x9e94be3081c0730a8771b5b296e82812529b05d556e42b3f3ae5633c2ef05800",
          "transactionIndex": "0x54",
          "logIndex": "0xae",
          "removed": false
        }
      ],
      "logsBloom": "0x00010000000000000000000000000000000000000000000000000000000000200000000000800040080000000000000000000002000000000000000000080000000000000000000000000000000000000000000000000000000100000000000000000000000000000000000000020000000000000000000000000800000000000020000000000000000000000000000000000000000000000000000000000000000000000000000000000000000000000000000001000000000000080000000000000000000000000000000000000000000000000000000040000000000000000000000000000000000000000000000000000000000000000000000000000400",
      "type": "0x2",
      "transactionHash": "0x9e94be3081c0730a8771b5b296e82812529b05d556e42b3f3ae5633c2ef05800",
      "transactionIndex": "0x54",
      "blockHash": "0x7ba6d615ec519e4defb4ae5af9a674daf6596e83dceeffbe5b6b0d7156129cfd",
      "blockNumber": "0x93d92b",
      "gasUsed": "0xbaca",
      "effectiveGasPrice": "0xf424a",
      "from": "0x4b992f2fbf714c0fcbb23bac5130ace48cad00cd",
      "to": "0x000000000022d473030f116ddee9f6b43ac78ba3",
      "contractAddress": null
    },
    {
      "status": "0x1",
      "cumulativeGasUsed": "0xae1c41",
      "logs": [
        {
          "address": "0x000000000022d473030f116ddee9f6b43ac78ba3",
          "topics": [
            "0xda9fa7c1b00402c17d0161b249b1ab8bbec047c5a52207b9c112deffd817036b",
            "0x0000000000000000000000004b992f2fbf714c0fcbb23bac5130ace48cad00cd",
            "0x000000000000000000000000002307f602cc9f866ab59412dcf3f64177b29c51",
            "0x000000000000000000000000f13d190e9117920c703d79b5f33732e10049b115"
          ],
          "data": "0x000000000000000000000000ffffffffffffffffffffffffffffffffffffffff0000000000000000000000000000000000000000000000000000ffffffffffff",
          "blockHash": "0x7ba6d615ec519e4defb4ae5af9a674daf6596e83dceeffbe5b6b0d7156129cfd",
          "blockNumber": "0x93d92b",
          "blockTimestamp": "0x6922ebf4",
          "transactionHash": "0x4161bfb56719da1b1ef12628d4b55b9d322a9c6e5b7a7b801dad8dc181003f57",
          "transactionIndex": "0x55",
          "logIndex": "0xaf",
          "removed": false
        }
      ],
      "logsBloom": "0x00010000000000000000000000000000000000000000000000800000200000000000000000000000000000000000000000000002000000000000000000080000000000000000000000000000000000000000000000000000000100000000000000000000000800000000000000020000000000000000000000000000000000000020000001080000000000000000000000000000000000000000000000000000000000000000000000000000000000000000000000000000000000080000000000000000000000000000000000000000000000000000000040000000000080000000000000000000000000000000000000000000000000000000000000000400",
      "type": "0x2",
      "transactionHash": "0x4161bfb56719da1b1ef12628d4b55b9d322a9c6e5b7a7b801dad8dc181003f57",
      "transactionIndex": "0x55",
      "blockHash": "0x7ba6d615ec519e4defb4ae5af9a674daf6596e83dceeffbe5b6b0d7156129cfd",
      "blockNumber": "0x93d92b",
      "gasUsed": "0xbab2",
      "effectiveGasPrice": "0xf424a",
      "from": "0x4b992f2fbf714c0fcbb23bac5130ace48cad00cd",
      "to": "0x000000000022d473030f116ddee9f6b43ac78ba3",
      "contractAddress": null
    },
    {
      "status": "0x1",
      "cumulativeGasUsed": "0xaed6ff",
      "logs": [
        {
          "address": "0x000000000022d473030f116ddee9f6b43ac78ba3",
          "topics": [
            "0xda9fa7c1b00402c17d0161b249b1ab8bbec047c5a52207b9c112deffd817036b",
            "0x0000000000000000000000004b992f2fbf714c0fcbb23bac5130ace48cad00cd",
            "0x000000000000000000000000f7d961d686ca264b20735d6e8685ebe603d8cffd",
            "0x000000000000000000000000f13d190e9117920c703d79b5f33732e10049b115"
          ],
          "data": "0x000000000000000000000000ffffffffffffffffffffffffffffffffffffffff0000000000000000000000000000000000000000000000000000ffffffffffff",
          "blockHash": "0x7ba6d615ec519e4defb4ae5af9a674daf6596e83dceeffbe5b6b0d7156129cfd",
          "blockNumber": "0x93d92b",
          "blockTimestamp": "0x6922ebf4",
          "transactionHash": "0xd9f5c72ed12453660a8b05d8fab35e70e8d11c8e757c70a10cea225643f769fa",
          "transactionIndex": "0x56",
          "logIndex": "0xb0",
          "removed": false
        }
      ],
      "logsBloom": "0x00010000000000000000000000000000000000000000000000800000000000200000000000800000000000000000000000000002000000000000000000080000000000000000000000000000000000000000000000000000000100000000000000000000000000000000000000020000000000000000000000000000000000000020000000080000000000000000000000000000000000000000000000000000000000000000000000000000000000000000000001000000000000080000000000000000000000000000000000000000000000000000000040000000000080000000000000000000000000000000000000000000000000000000000000000400",
      "type": "0x2",
      "transactionHash": "0xd9f5c72ed12453660a8b05d8fab35e70e8d11c8e757c70a10cea225643f769fa",
      "transactionIndex": "0x56",
      "blockHash": "0x7ba6d615ec519e4defb4ae5af9a674daf6596e83dceeffbe5b6b0d7156129cfd",
      "blockNumber": "0x93d92b",
      "gasUsed": "0xbabe",
      "effectiveGasPrice": "0xf424a",
      "from": "0x4b992f2fbf714c0fcbb23bac5130ace48cad00cd",
      "to": "0x000000000022d473030f116ddee9f6b43ac78ba3",
      "contractAddress": null
    },
    {
      "status": "0x1",
      "cumulativeGasUsed": "0xb01be7",
      "logs": [
        {
          "address": "0xe03a1074c86cfedd5c142c4f04f1a1536e203543",
          "topics": [
            "0xdd466e674ea557f56295e2d0218a125ea4b4f0f6f3307b95f85e6110838d6438",
            "0x34d34550b781a7ed281fa15a13fff761f09793e866a3a439733a2906ef0c9313",
            "0x000000000000000000000000002307f602cc9f866ab59412dcf3f64177b29c51",
            "0x000000000000000000000000f7d961d686ca264b20735d6e8685ebe603d8cffd"
          ],
          "data": "0x0000000000000000000000000000000000000000000000000000000000800000000000000000000000000000000000000000000000000000000000000000000a000000000000000000000000be98d00e9f9676f7195985d278b40f5a4610da8000000000000000000000000000000000000000010000000000000000000000000000000000000000000000000000000000000000000000000000000000000000",
          "blockHash": "0x7ba6d615ec519e4defb4ae5af9a674daf6596e83dceeffbe5b6b0d7156129cfd",
          "blockNumber": "0x93d92b",
          "blockTimestamp": "0x6922ebf4",
          "transactionHash": "0x44dd52f66f71cf5b1b8b91bbacf33d911a32bd5af8225a73e7a7f99abdab8021",
          "transactionIndex": "0x57",
          "logIndex": "0xb1",
          "removed": false
        }
      ],
      "logsBloom": "0x00000000000000000000000000000000000000000000000000000000200000200000000000800000000000000000000000000100000000000000000000000000000000000000000000000000000000000000000000080000000000000000000000000000000800000000000000000000000000000000100000000000000000004000000001000008000000000000000000000001000000000000000000200000000000000000000000000000000000000000000001000000000000020000000000000000000000000000000000000000000000000000000000000000000000001000000000000000000000000000000000000000000000000000000000000000",
      "type": "0x2",
      "transactionHash": "0x44dd52f66f71cf5b1b8b91bbacf33d911a32bd5af8225a73e7a7f99abdab8021",
      "transactionIndex": "0x57",
      "blockHash": "0x7ba6d615ec519e4defb4ae5af9a674daf6596e83dceeffbe5b6b0d7156129cfd",
      "blockNumber": "0x93d92b",
      "gasUsed": "0x144e8",
      "effectiveGasPrice": "0xf424a",
      "from": "0x4b992f2fbf714c0fcbb23bac5130ace48cad00cd",
      "to": "0x429ba70129df741b2ca2a85bc3a2a3328e5c09b4",
      "contractAddress": null
    },
    {
      "status": "0x1",
      "cumulativeGasUsed": "0xb25da3",
      "logs": [
        {
          "address": "0xbe98d00e9f9676f7195985d278b40f5a4610da80",
          "topics": [
            "0x729920d0202c6d66daa9b0071fbd7faf2987788c9edbd2b11524174bc3572797",
            "0x34d34550b781a7ed281fa15a13fff761f09793e866a3a439733a2906ef0c9313"
          ],
          "data": "0xff61491a931112ddf1bd8147cd1b641375f79f5825126d665480874634fd0aceeaa020c61cc479712813461ce153894a96a6c00b21ed0cfc2798d1f9a9e9c94a0000000000000000000000000000000000000000000000000000000000000bb8",
          "blockHash": "0x7ba6d615ec519e4defb4ae5af9a674daf6596e83dceeffbe5b6b0d7156129cfd",
          "blockNumber": "0x93d92b",
          "blockTimestamp": "0x6922ebf4",
          "transactionHash": "0x1d43df30bdea21c8950d571de481a76fb87844e940adbdc4efc6d2485e448d13",
          "transactionIndex": "0x58",
          "logIndex": "0xb2",
          "removed": false
        }
      ],
      "logsBloom": "0x00000000000000000000000000000000000000000000000000000000000000000000000000000000000000000000000000000000000000000000000000000000000000000000000000000000000000000000000080080000000000000000000000000000000000000000000000000000000000000000000000000000000000004000000000000000000000000000000000000000000000000000000000000000002000000000000000000000000000000000000000000000000000020000000000000000000000000200001000001000000000000000000000000000000000000000000000000040000000000000000000000000000000000000000000000000",
      "type": "0x2",
      "transactionHash": "0x1d43df30bdea21c8950d571de481a76fb87844e940adbdc4efc6d2485e448d13",
      "transactionIndex": "0x58",
      "blockHash": "0x7ba6d615ec519e4defb4ae5af9a674daf6596e83dceeffbe5b6b0d7156129cfd",
      "blockNumber": "0x93d92b",
      "gasUsed": "0x241bc",
      "effectiveGasPrice": "0xf424a",
      "from": "0x4b992f2fbf714c0fcbb23bac5130ace48cad00cd",
      "to": "0xbe98d00e9f9676f7195985d278b40f5a4610da80",
      "contractAddress": null
    },
    {
      "status": "0x1",
      "cumulativeGasUsed": "0x8b219c",
      "logs": [
        {
          "address": "0xbe98d00e9f9676f7195985d278b40f5a4610da80",
          "topics": [
            "0xdd2a05ee627e21200e0951d34b21c70daa04b7e5e93f3345f4790133e0a3cb6e",
            "0x34d34550b781a7ed281fa15a13fff761f09793e866a3a439733a2906ef0c9313"
          ],
          "data": "0x0000000000000000000000000000000000000000000000000000000000000001",
          "blockHash": "0x919a296654395cbaf9457b2d0e19b3c2b99e31bd0f78417afe3812bf7501f0b2",
          "blockNumber": "0x93d92c",
          "blockTimestamp": "0x6922ec00",
          "transactionHash": "0x41bea927b36c6c7e5e957ef1ebdeb666e3b81e51eb51540f0b6954d9861fb478",
          "transactionIndex": "0x3a",
          "logIndex": "0xc8",
          "removed": false
        }
      ],
      "logsBloom": "0x00000000000000000000000000000000000000000000000000000000000000000000000000000000000000000000000000000000000000000000000000000000000000000000000000000000000000000000000000080000000000000000000000000000000000000000000000000000000000000000000000000000000080004000000000000000000000000000000000000000000000000000000000000000000000000000000000000000000000000000000000010000000000020000000000000000000000000000001000001000000000000000000000000000000000000000000000000040000000100000000000000000000000000000000000000000",
      "type": "0x2",
      "transactionHash": "0x41bea927b36c6c7e5e957ef1ebdeb666e3b81e51eb51540f0b6954d9861fb478",
      "transactionIndex": "0x3a",
      "blockHash": "0x919a296654395cbaf9457b2d0e19b3c2b99e31bd0f78417afe3812bf7501f0b2",
      "blockNumber": "0x93d92c",
      "gasUsed": "0x1700a",
      "effectiveGasPrice": "0xf424a",
      "from": "0x4b992f2fbf714c0fcbb23bac5130ace48cad00cd",
      "to": "0xbe98d00e9f9676f7195985d278b40f5a4610da80",
      "contractAddress": null
    },
    {
      "status": "0x1",
      "cumulativeGasUsed": "0x8be60c",
      "logs": [
        {
          "address": "0xbe98d00e9f9676f7195985d278b40f5a4610da80",
          "topics": [
            "0xc337381799abf8ffeaaa48855eb4cd6074f13a99c4aa246a62d7d83b507fa24f",
            "0x34d34550b781a7ed281fa15a13fff761f09793e866a3a439733a2906ef0c9313",
            "0x000000000000000000000000429ba70129df741b2ca2a85bc3a2a3328e5c09b4"
          ],
          "data": "0x0000000000000000000000000000000000000000000000000000000000000001",
          "blockHash": "0x919a296654395cbaf9457b2d0e19b3c2b99e31bd0f78417afe3812bf7501f0b2",
          "blockNumber": "0x93d92c",
          "blockTimestamp": "0x6922ec00",
          "transactionHash": "0xe274603c1a08f332ea9a886d6e1f9111951e80d4945f6c373004f7921b2cb323",
          "transactionIndex": "0x3b",
          "logIndex": "0xc9",
          "removed": false
        }
      ],
      "logsBloom": "0x00000000000000000000000000000000000000000000000000000000000000000000000000000040080000000000000000000000000000002000000000000000000000000000000000000000000000000000000000080000000000000000000000000000000000000000000000000000000000000000000000000800000000004000000000000000000000000000000000000004000000000000000000000000000000000000000000000000000000000000000000000100000000020000000000000000000000000000001000001000000000000000000000000000000000000000000000000040000000000000000000000000000000000000000000000000",
      "type": "0x2",
      "transactionHash": "0xe274603c1a08f332ea9a886d6e1f9111951e80d4945f6c373004f7921b2cb323",
      "transactionIndex": "0x3b",
      "blockHash": "0x919a296654395cbaf9457b2d0e19b3c2b99e31bd0f78417afe3812bf7501f0b2",
      "blockNumber": "0x93d92c",
      "gasUsed": "0xc470",
      "effectiveGasPrice": "0xf424a",
      "from": "0x4b992f2fbf714c0fcbb23bac5130ace48cad00cd",
      "to": "0xbe98d00e9f9676f7195985d278b40f5a4610da80",
      "contractAddress": null
    },
    {
      "status": "0x1",
      "cumulativeGasUsed": "0x8caa70",
      "logs": [
        {
          "address": "0xbe98d00e9f9676f7195985d278b40f5a4610da80",
          "topics": [
            "0xc337381799abf8ffeaaa48855eb4cd6074f13a99c4aa246a62d7d83b507fa24f",
            "0x34d34550b781a7ed281fa15a13fff761f09793e866a3a439733a2906ef0c9313",
            "0x000000000000000000000000f13d190e9117920c703d79b5f33732e10049b115"
          ],
          "data": "0x0000000000000000000000000000000000000000000000000000000000000001",
          "blockHash": "0x919a296654395cbaf9457b2d0e19b3c2b99e31bd0f78417afe3812bf7501f0b2",
          "blockNumber": "0x93d92c",
          "blockTimestamp": "0x6922ec00",
          "transactionHash": "0xf7b9711ab995dffe8bef5cc6c5fca41ba9c2adc2820027b8c3a978b7436b6317",
          "transactionIndex": "0x3c",
          "logIndex": "0xca",
          "removed": false
        }
      ],
      "logsBloom": "0x00000000000000000000000000000000000000000000000000800000000000000000000000000000000000000000000000000000000000002000000000000000000000000000000000000000000000000000000000080000000000000000000000000000000000000000000000000000000000000000000000000000000000004000000000080000000000000000000000000004000000000000000000000000000000000000000000000000000000000000000000000100000000020000000000000000000000000000001000001000000000000000000000000000000080000000000000000040000000000000000000000000000000000000000000000000",
      "type": "0x2",
      "transactionHash": "0xf7b9711ab995dffe8bef5cc6c5fca41ba9c2adc2820027b8c3a978b7436b6317",
      "transactionIndex": "0x3c",
      "blockHash": "0x919a296654395cbaf9457b2d0e19b3c2b99e31bd0f78417afe3812bf7501f0b2",
      "blockNumber": "0x93d92c",
      "gasUsed": "0xc464",
      "effectiveGasPrice": "0xf424a",
      "from": "0x4b992f2fbf714c0fcbb23bac5130ace48cad00cd",
      "to": "0xbe98d00e9f9676f7195985d278b40f5a4610da80",
      "contractAddress": null
    },
    {
      "status": "0x1",
      "cumulativeGasUsed": "0x8d6ed4",
      "logs": [
        {
          "address": "0xbe98d00e9f9676f7195985d278b40f5a4610da80",
          "topics": [
            "0xc337381799abf8ffeaaa48855eb4cd6074f13a99c4aa246a62d7d83b507fa24f",
            "0x34d34550b781a7ed281fa15a13fff761f09793e866a3a439733a2906ef0c9313",
            "0x0000000000000000000000004b992f2fbf714c0fcbb23bac5130ace48cad00cd"
          ],
          "data": "0x0000000000000000000000000000000000000000000000000000000000000001",
          "blockHash": "0x919a296654395cbaf9457b2d0e19b3c2b99e31bd0f78417afe3812bf7501f0b2",
          "blockNumber": "0x93d92c",
          "blockTimestamp": "0x6922ec00",
          "transactionHash": "0xe8e8bc5ef534b2115cf63aef87d5a46879784da1bbe2f2806f134f81bfc95cae",
          "transactionIndex": "0x3d",
          "logIndex": "0xcb",
          "removed": false
        }
      ],
      "logsBloom": "0x00000000000000000000000000000000000000000000000000000000000000000000000000000000000000000000000000000002000000002000000000000000000000000000000000000000000000000000000000080000000100000000000000000000000000000000000000020000000000000000000000000000000000004000000000000000000000000000000000000004000000000000000000000000000000000000000000000000000000000000000000000100000000020000000000000000000000000000001000001000000000000000000000000000000000000000000000000040000000000000000000000000000000000000000000000000",
      "type": "0x2",
      "transactionHash": "0xe8e8bc5ef534b2115cf63aef87d5a46879784da1bbe2f2806f134f81bfc95cae",
      "transactionIndex": "0x3d",
      "blockHash": "0x919a296654395cbaf9457b2d0e19b3c2b99e31bd0f78417afe3812bf7501f0b2",
      "blockNumber": "0x93d92c",
      "gasUsed": "0xc464",
      "effectiveGasPrice": "0xf424a",
      "from": "0x4b992f2fbf714c0fcbb23bac5130ace48cad00cd",
      "to": "0xbe98d00e9f9676f7195985d278b40f5a4610da80",
      "contractAddress": null
    },
    {
      "status": "0x1",
      "cumulativeGasUsed": "0x8f8f4f",
      "logs": [
        {
          "address": "0x9c93926bcef5af829fa2e9b096fabb87508350ae",
          "topics": [
            "0xbeaf02f0d8dcdfbc315e76677084129235a8a874ca629ea59f521c7bc8131ea5",
            "0x34d34550b781a7ed281fa15a13fff761f09793e866a3a439733a2906ef0c9313"
          ],
          "data": "0x0000000000000000000000000000000000000000000000000000000000000064000000000000000000000000000000000000000000000000000000000000012c00000000000000000000000000000000000000000000000000000000000000c8000000000000000000000000000000000000000000000000000000000000012c0000000000000000000000000000000000000000000000000000000000000078",
          "blockHash": "0x919a296654395cbaf9457b2d0e19b3c2b99e31bd0f78417afe3812bf7501f0b2",
          "blockNumber": "0x93d92c",
          "blockTimestamp": "0x6922ec00",
          "transactionHash": "0x420e2fff140cf3252e07196b3339e9cc03ca626a49d1e3fb0af99869727460d2",
          "transactionIndex": "0x3e",
          "logIndex": "0xcc",
          "removed": false
        }
      ],
      "logsBloom": "0x00000000000000000000000000000000000000000000000000000000000000000400000000000000000000000000000000000000000000000000000000000000000000000000000000000000000000000000000000080000000000000000000000000000040000000000000000000000000000000400000000000000000000004000000000000000000000000000000008000000000000000000000000000000000000000000000000000000000000000000000000000000000000020000000000000000000000000020000000000000000000000000000000000000000000000000000000000000000000000000000000000000000000000000000000000002",
      "type": "0x2",
      "transactionHash": "0x420e2fff140cf3252e07196b3339e9cc03ca626a49d1e3fb0af99869727460d2",
      "transactionIndex": "0x3e",
      "blockHash": "0x919a296654395cbaf9457b2d0e19b3c2b99e31bd0f78417afe3812bf7501f0b2",
      "blockNumber": "0x93d92c",
      "gasUsed": "0x2207b",
      "effectiveGasPrice": "0xf424a",
      "from": "0x4b992f2fbf714c0fcbb23bac5130ace48cad00cd",
      "to": "0x9c93926bcef5af829fa2e9b096fabb87508350ae",
      "contractAddress": null
    },
    {
      "status": "0x1",
      "cumulativeGasUsed": "0x90af25",
      "logs": [
        {
          "address": "0x5e2dd3d96e81925e142d2f0de2916aa952bb598f",
          "topics": [
            "0x70666b25e9887efbfc9f2adaa76f4307e0dc040ff0cb4a81fc568873e154df6d",
            "0x34d34550b781a7ed281fa15a13fff761f09793e866a3a439733a2906ef0c9313"
          ],
          "data": "0xffffffffffffffffffffffffffffffffffffffffffffffffffffffffffffff9c0000000000000000000000000000000000000000000000000000000000000064000000000000000000000000000000000000000000000000000000000000003c00000000000000000000000000000000000000000000000000000000000001f4",
          "blockHash": "0x919a296654395cbaf9457b2d0e19b3c2b99e31bd0f78417afe3812bf7501f0b2",
          "blockNumber": "0x93d92c",
          "blockTimestamp": "0x6922ec00",
          "transactionHash": "0x977d5419a671b423afe5a4fdec1034f093d99732e01487a662c52917b4f67785",
          "transactionIndex": "0x3f",
          "logIndex": "0xcd",
          "removed": false
        }
      ],
      "logsBloom": "0x00000000000000000000000000000000000000000000000000000000002000000000000000000000000000000000000000000000000000000000000000000000000000000000000000000000000000000000000000080000000000000000000000000000000000000000000000000000000000000000000000000000000000004000000000000000000000000000000000000000000000000000000000000000000000000000000000200000000000000000000000000000000000020000000000000000000000004000000000000000000000000000000000000800000000200000000000000000000000000000000000000000000008000000000000000000",
      "type": "0x2",
      "transactionHash": "0x977d5419a671b423afe5a4fdec1034f093d99732e01487a662c52917b4f67785",
      "transactionIndex": "0x3f",
      "blockHash": "0x919a296654395cbaf9457b2d0e19b3c2b99e31bd0f78417afe3812bf7501f0b2",
      "blockNumber": "0x93d92c",
      "gasUsed": "0x11fd6",
      "effectiveGasPrice": "0xf424a",
      "from": "0x4b992f2fbf714c0fcbb23bac5130ace48cad00cd",
      "to": "0x5e2dd3d96e81925e142d2f0de2916aa952bb598f",
      "contractAddress": null
    },
    {
      "status": "0x1",
      "cumulativeGasUsed": "0x9138ee",
      "logs": [
        {
          "address": "0xbe98d00e9f9676f7195985d278b40f5a4610da80",
          "topics": [
            "0x77e818f5e2dbc8239b6d6ec59292dcc331d4eccf3584e9b2f7ac08d2d1cb4856",
            "0x34d34550b781a7ed281fa15a13fff761f09793e866a3a439733a2906ef0c9313"
          ],
          "data": "0xffffffffffffffffffffffffffffffffffffffffffffffffffffffffffffff9c0000000000000000000000000000000000000000000000000000000000000064",
          "blockHash": "0x919a296654395cbaf9457b2d0e19b3c2b99e31bd0f78417afe3812bf7501f0b2",
          "blockNumber": "0x93d92c",
          "blockTimestamp": "0x6922ec00",
          "transactionHash": "0x56880839ba60b4533f8c97e66085bff38753a51ebbfcc4a0de0ac8b164acbf0d",
          "transactionIndex": "0x40",
          "logIndex": "0xce",
          "removed": false
        },
        {
          "address": "0xbe98d00e9f9676f7195985d278b40f5a4610da80",
          "topics": [
            "0xe43957927a559e4d039afa4625e1c34be93476635be5baa87d02d210d45985b2",
            "0x34d34550b781a7ed281fa15a13fff761f09793e866a3a439733a2906ef0c9313"
          ],
          "data": "0xffffffffffffffffffffffffffffffffffffffffffffffffffffffffffffff9c0000000000000000000000000000000000000000000000000000000000000064",
          "blockHash": "0x919a296654395cbaf9457b2d0e19b3c2b99e31bd0f78417afe3812bf7501f0b2",
          "blockNumber": "0x93d92c",
          "blockTimestamp": "0x6922ec00",
          "transactionHash": "0x56880839ba60b4533f8c97e66085bff38753a51ebbfcc4a0de0ac8b164acbf0d",
          "transactionIndex": "0x40",
          "logIndex": "0xcf",
          "removed": false
        }
      ],
      "logsBloom": "0x00000000000000000000000000000000000000000000000000000008000000000040000000000000000000002000000000000040000000000000000000000000000000000000000000000000000000000000000000080000000000000000000100000000000001000000000000000000000000000000000000000000000000004000000000000000000000000000000000000000000000000000000000000000000000000000000000000000000000000000000000000000000000020000000000000000000000000000001000001000000000000000000000000000000000000000000000000040000000000000000000000000000000000000000000000000",
      "type": "0x2",
      "transactionHash": "0x56880839ba60b4533f8c97e66085bff38753a51ebbfcc4a0de0ac8b164acbf0d",
      "transactionIndex": "0x40",
      "blockHash": "0x919a296654395cbaf9457b2d0e19b3c2b99e31bd0f78417afe3812bf7501f0b2",
      "blockNumber": "0x93d92c",
      "gasUsed": "0x89c9",
      "effectiveGasPrice": "0xf424a",
      "from": "0x4b992f2fbf714c0fcbb23bac5130ace48cad00cd",
      "to": "0xbe98d00e9f9676f7195985d278b40f5a4610da80",
      "contractAddress": null
    },
    {
      "status": "0x1",
      "cumulativeGasUsed": "0x98543b",
      "logs": [
        {
          "address": "0x429ba70129df741b2ca2a85bc3a2a3328e5c09b4",
          "topics": [
            "0xddf252ad1be2c89b69c2b068fc378daa952ba7f163c4a11628f55a4df523b3ef",
            "0x0000000000000000000000000000000000000000000000000000000000000000",
            "0x0000000000000000000000004b992f2fbf714c0fcbb23bac5130ace48cad00cd",
            "0x00000000000000000000000000000000000000000000000000000000000050e9"
          ],
          "data": "0x",
          "blockHash": "0x919a296654395cbaf9457b2d0e19b3c2b99e31bd0f78417afe3812bf7501f0b2",
          "blockNumber": "0x93d92c",
          "blockTimestamp": "0x6922ec00",
          "transactionHash": "0x00e8a77daa4b99609e7200d16586180cdd4d30da48f3f78bc9f62094bd1c1b41",
          "transactionIndex": "0x41",
          "logIndex": "0xd0",
          "removed": false
        },
        {
          "address": "0xbe98d00e9f9676f7195985d278b40f5a4610da80",
          "topics": [
            "0xedea0b1b0a7ceeaa8c33ce18b611d0ba7ef8f883d251864027b43f0c1229c5f4",
            "0x34d34550b781a7ed281fa15a13fff761f09793e866a3a439733a2906ef0c9313"
          ],
          "data": "0x0000000000000000000000000000000000000000000000000000000000000001000000000000000000000000000000000000000000000000000000000000000100000000000000000000000000000000000000000000000000000000000000010000000000000000000000000000000000000000000000000000000000000000000000000000000000000000429ba70129df741b2ca2a85bc3a2a3328e5c09b4",
          "blockHash": "0x919a296654395cbaf9457b2d0e19b3c2b99e31bd0f78417afe3812bf7501f0b2",
          "blockNumber": "0x93d92c",
          "blockTimestamp": "0x6922ec00",
          "transactionHash": "0x00e8a77daa4b99609e7200d16586180cdd4d30da48f3f78bc9f62094bd1c1b41",
          "transactionIndex": "0x41",
          "logIndex": "0xd1",
          "removed": false
        },
        {
          "address": "0xe03a1074c86cfedd5c142c4f04f1a1536e203543",
          "topics": [
            "0xf208f4912782fd25c7f114ca3723a2d5dd6f3bcc3ac8db5af63baa85f711d5ec",
            "0x34d34550b781a7ed281fa15a13fff761f09793e866a3a439733a2906ef0c9313",
            "0x000000000000000000000000429ba70129df741b2ca2a85bc3a2a3328e5c09b4"
          ],
          "data": "0xfffffffffffffffffffffffffffffffffffffffffffffffffffffffffffffda8000000000000000000000000000000000000000000000000000000000000025800000000000000000000000000000000000000000000000000000189eb9b999600000000000000000000000000000000000000000000000000000000000050e9",
          "blockHash": "0x919a296654395cbaf9457b2d0e19b3c2b99e31bd0f78417afe3812bf7501f0b2",
          "blockNumber": "0x93d92c",
          "blockTimestamp": "0x6922ec00",
          "transactionHash": "0x00e8a77daa4b99609e7200d16586180cdd4d30da48f3f78bc9f62094bd1c1b41",
          "transactionIndex": "0x41",
          "logIndex": "0xd2",
          "removed": false
        },
        {
          "address": "0x002307f602cc9f866ab59412dcf3f64177b29c51",
          "topics": [
            "0xddf252ad1be2c89b69c2b068fc378daa952ba7f163c4a11628f55a4df523b3ef",
            "0x0000000000000000000000004b992f2fbf714c0fcbb23bac5130ace48cad00cd",
            "0x000000000000000000000000e03a1074c86cfedd5c142c4f04f1a1536e203543"
          ],
          "data": "0x0000000000000000000000000000000000000000000000000000000ba43b7400",
          "blockHash": "0x919a296654395cbaf9457b2d0e19b3c2b99e31bd0f78417afe3812bf7501f0b2",
          "blockNumber": "0x93d92c",
          "blockTimestamp": "0x6922ec00",
          "transactionHash": "0x00e8a77daa4b99609e7200d16586180cdd4d30da48f3f78bc9f62094bd1c1b41",
          "transactionIndex": "0x41",
          "logIndex": "0xd3",
          "removed": false
        },
        {
          "address": "0xf7d961d686ca264b20735d6e8685ebe603d8cffd",
          "topics": [
            "0xddf252ad1be2c89b69c2b068fc378daa952ba7f163c4a11628f55a4df523b3ef",
            "0x0000000000000000000000004b992f2fbf714c0fcbb23bac5130ace48cad00cd",
            "0x000000000000000000000000e03a1074c86cfedd5c142c4f04f1a1536e203543"
          ],
          "data": "0x0000000000000000000000000000000000000000000000000000000ba43b7400",
          "blockHash": "0x919a296654395cbaf9457b2d0e19b3c2b99e31bd0f78417afe3812bf7501f0b2",
          "blockNumber": "0x93d92c",
          "blockTimestamp": "0x6922ec00",
          "transactionHash": "0x00e8a77daa4b99609e7200d16586180cdd4d30da48f3f78bc9f62094bd1c1b41",
          "transactionIndex": "0x41",
          "logIndex": "0xd4",
          "removed": false
        }
      ],
      "logsBloom": "0x00000000000000000020001000000000000000000000000000000000080000000000000000000040080000000000000000000102000000000000000000000000000000000000000000000008000000000000000000080000000100000000000000000000020000000000000080120800000000000000100000000810000000004000920001000000000010000000000000000400000000000000000000000000000004000000008000000000000000000000000000400000000000020000000000000402000000080000001000001000000000000000000000001000000020001000000800000040000000000000000006000000000000000000000000000000",
      "type": "0x2",
      "transactionHash": "0x00e8a77daa4b99609e7200d16586180cdd4d30da48f3f78bc9f62094bd1c1b41",
      "transactionIndex": "0x41",
      "blockHash": "0x919a296654395cbaf9457b2d0e19b3c2b99e31bd0f78417afe3812bf7501f0b2",
      "blockNumber": "0x93d92c",
      "gasUsed": "0x71b4d",
      "effectiveGasPrice": "0xf424a",
      "from": "0x4b992f2fbf714c0fcbb23bac5130ace48cad00cd",
      "to": "0x429ba70129df741b2ca2a85bc3a2a3328e5c09b4",
      "contractAddress": null
    },
    {
      "status": "0x1",
      "cumulativeGasUsed": "0x9b188b",
      "logs": [
        {
          "address": "0xe03a1074c86cfedd5c142c4f04f1a1536e203543",
          "topics": [
            "0x40e9cecb9f5f1f1c5b9c97dec2917b7ee92e57ba5563708daca94dd84ad7112f",
            "0x34d34550b781a7ed281fa15a13fff761f09793e866a3a439733a2906ef0c9313",
            "0x000000000000000000000000f13d190e9117920c703d79b5f33732e10049b115"
          ],
          "data": "0xfffffffffffffffffffffffffffffffffffffffffffffffffffffffdabf41c00000000000000000000000000000000000000000000000000000000024ec6e54f0000000000000000000000000000000000000000fe80113b6d47d7d7f22dd12d00000000000000000000000000000000000000000000000000000189eb9b9996ffffffffffffffffffffffffffffffffffffffffffffffffffffffffffffff8a0000000000000000000000000000000000000000000000000000000000000bb8",
          "blockHash": "0x919a296654395cbaf9457b2d0e19b3c2b99e31bd0f78417afe3812bf7501f0b2",
          "blockNumber": "0x93d92c",
          "blockTimestamp": "0x6922ec00",
          "transactionHash": "0x7a1b27e005179bf178f44c962c90bfc8f5cb3520042a68c13bada33628506eac",
          "transactionIndex": "0x42",
          "logIndex": "0xd5",
          "removed": false
        },
        {
          "address": "0x002307f602cc9f866ab59412dcf3f64177b29c51",
          "topics": [
            "0xddf252ad1be2c89b69c2b068fc378daa952ba7f163c4a11628f55a4df523b3ef",
            "0x0000000000000000000000004b992f2fbf714c0fcbb23bac5130ace48cad00cd",
            "0x000000000000000000000000e03a1074c86cfedd5c142c4f04f1a1536e203543"
          ],
          "data": "0x00000000000000000000000000000000000000000000000000000002540be400",
          "blockHash": "0x919a296654395cbaf9457b2d0e19b3c2b99e31bd0f78417afe3812bf7501f0b2",
          "blockNumber": "0x93d92c",
          "blockTimestamp": "0x6922ec00",
          "transactionHash": "0x7a1b27e005179bf178f44c962c90bfc8f5cb3520042a68c13bada33628506eac",
          "transactionIndex": "0x42",
          "logIndex": "0xd6",
          "removed": false
        },
        {
          "address": "0xf7d961d686ca264b20735d6e8685ebe603d8cffd",
          "topics": [
            "0xddf252ad1be2c89b69c2b068fc378daa952ba7f163c4a11628f55a4df523b3ef",
            "0x000000000000000000000000e03a1074c86cfedd5c142c4f04f1a1536e203543",
            "0x0000000000000000000000004b992f2fbf714c0fcbb23bac5130ace48cad00cd"
          ],
          "data": "0x000000000000000000000000000000000000000000000000000000024ec6e54f",
          "blockHash": "0x919a296654395cbaf9457b2d0e19b3c2b99e31bd0f78417afe3812bf7501f0b2",
          "blockNumber": "0x93d92c",
          "blockTimestamp": "0x6922ec00",
          "transactionHash": "0x7a1b27e005179bf178f44c962c90bfc8f5cb3520042a68c13bada33628506eac",
          "transactionIndex": "0x42",
          "logIndex": "0xd7",
          "removed": false
        }
      ],
      "logsBloom": "0x00000000000000000000000000000000000000000000000000800000000000000000000000000000000000000000000000000102040000000000000000000000000000000000000000000008000000000000000000080020000100000000000000000000000000000000000080120000000000000000100000000010000000004000920000080000000010000000000000000000000000000000000000000000000000000000000000000000000000000000000000000000000000020000000000000002000000080000000000000000000000000000000000001000000080001000000000000000004000000000000002000000000000000000000000000000",
      "type": "0x2",
      "transactionHash": "0x7a1b27e005179bf178f44c962c90bfc8f5cb3520042a68c13bada33628506eac",
      "transactionIndex": "0x42",
      "blockHash": "0x919a296654395cbaf9457b2d0e19b3c2b99e31bd0f78417afe3812bf7501f0b2",
      "blockNumber": "0x93d92c",
      "gasUsed": "0x2c450",
      "effectiveGasPrice": "0xf424a",
      "from": "0x4b992f2fbf714c0fcbb23bac5130ace48cad00cd",
      "to": "0xf13d190e9117920c703d79b5f33732e10049b115",
      "contractAddress": null
    },
    {
      "status": "0x1",
      "cumulativeGasUsed": "0x9c5d4b",
      "logs": [
        {
          "address": "0x9c93926bcef5af829fa2e9b096fabb87508350ae",
          "topics": [
            "0xeebeaf30d63c7884a39267669fc89ee5f2178da8b1089dbe6ab97d26272fd5d5",
            "0x34d34550b781a7ed281fa15a13fff761f09793e866a3a439733a2906ef0c9313"
          ],
          "data": "0x000000000000000000000000000000000000000000000000000000000000000000000000000000000000000000000000000000000000000000000000000000000000000000000000000000000000000000000000000000000000000000000000ffffffffffffffffffffffffffffffffffffffffffffffffffffffffffffffff",
          "blockHash": "0x919a296654395cbaf9457b2d0e19b3c2b99e31bd0f78417afe3812bf7501f0b2",
          "blockNumber": "0x93d92c",
          "blockTimestamp": "0x6922ec00",
          "transactionHash": "0x4864c460dd87e82db50cee85f2fab35d788c29ec326d132ef30a284a7e864990",
          "transactionIndex": "0x43",
          "logIndex": "0xd8",
          "removed": false
        }
      ],
      "logsBloom": "0x00000000000000000000000000000000000000000000000000000000000000000400000000000000000000000000000000000000000000000000000000000000000000000000000000000000000000000000000000080000000000000000000000000000040000000000000000000000000000000000000000000000000000004000000000000000000000020000000000000000000400000000000000000000000000000000000000000000000000000000000000000000000000020000000000000000000000000400000000000000000000000000000000000000000000000000000000000000000000000000000000000000000000000000000000000002",
      "type": "0x2",
      "transactionHash": "0x4864c460dd87e82db50cee85f2fab35d788c29ec326d132ef30a284a7e864990",
      "transactionIndex": "0x43",
      "blockHash": "0x919a296654395cbaf9457b2d0e19b3c2b99e31bd0f78417afe3812bf7501f0b2",
      "blockNumber": "0x93d92c",
      "gasUsed": "0x144c0",
      "effectiveGasPrice": "0xf424a",
      "from": "0x4b992f2fbf714c0fcbb23bac5130ace48cad00cd",
      "to": "0x9c93926bcef5af829fa2e9b096fabb87508350ae",
      "contractAddress": null
    }
  ],
  "libraries": [],
  "pending": [],
  "returns": {},
  "timestamp": 1763896321733,
  "chain": 11155111,
  "commit": "fdfcebf"
}